:060000000A128A1110280B
:10000800FE00030E83120313B0000A08B1007F0834
:10001800B2000A128A11D62B0A128A1113288312E7
:100028000313B401B501B601B701B801B901BA01AA
:10003800BB01BC01BD01BE01BF01C00183010A12A1
:100048008A118A2C7708803983120313A400770851
:10005800F8007807AB00F61F3228332834282B1411
:100068002B0803193828392849282B0A031D3D284D
:100078003E2846280030F7000030F6000030F50032
:100088000030F400F617F70151280030F70000306F
:10009800F6000030F5000030F40073088039F800ED
:1000A8007808A4067308F8007807AC00F21F5D28EA
:1000B8005E285F282C142C080319632864287428E8
:1000C8002C0A031D6828692871280030F3000030C5
:1000D800F2000030F1000030F000F217F3017C2844
:1000E8000030F3000030F2000030F1000030F00082
:1000F8007308720471047004031D832884289D28E2
:100108000030F7000030F6000030F5000030F40051
:100118008030F6047F30F7042408F8007808F704E4
:100128007708F3007608F2007508F1007408F0000B
:10013800FE292B08031DA128A228AB280030F300B4
:100148000030F2000030F1000030F000FE292B08EA
:10015800F800F9017908FB002C087802FA00031C62
:10016800FB037A087F3EA5007B080318013E003E8A
:10017800A6007708A3007608A2007508A1007408F5
:10018800A0000030F7000030F6000030F500003025
:10019800F4000030AA000030A9000030A8000030A8
:1001A800A700AC0127292C080319DB28DC28FC2828
:1001B8000130F8000310A00DA10DA20DA30DF80B3E
:1001C800DE280130F8000310F40DF50DF60DF70DDB
:1001D800F80BE728AA1FF128F228F3287414013035
:1001E800F8000310A70DA80DA90DAA0DF80BF52806
:1001F80073082302031D0A2972082202031D0A2913
:1002080071082102031D0A2970082002031C0D2908
:100218000E2923292A177008A0027108031C710FE0
:1002280016291729A1027208031C720F1C291D29FF
:10023800A2027308031C730F22292329A302013089
:10024800F8007808AC071A302C02031C2C292D2939
:10025800D728230822042104200403193429352926
:100268005429271454290130F8000310F40DF50D12
:10027800F60DF70DF80B3929AA1F432944294529FA
:1002880074140130F8000310A70DA80DA90DAA0DCC
:10029800F80B4729FF30A5070318A60AFF30A60761
:1002A800F61F572958293729AC01AA1F5C295D294F
:1002B8007929FF302705F800FF302805F900FF30BD
:1002C8002905FA007F302A05FB007B087A047904A7
:1002D80078040319702971297429AC01AC0A7929A9
:1002E800741C77297829792971292C0803197D2903
:1002F8007E29AF290130F407003003180130F507D3
:10030800003003180130F607003003180130F707F2
:10031800771C8F299029AF297408F8007508F9000F
:100328007608FA007708FB000130FC007B0DFB0C17
:10033800FA0CF90CF80CFC0B9A297B08F7007A08E0
:10034800F6007908F5007808F4000130A5070318CD
:10035800A60A0030A6072608803AFF0080307F02F0
:10036800031DB829FF302502031CBB29BC29CA2953
:10037800FF3083120313A5000030A6000030F700F9
:100388000030F6000030F5000030F400831203134B
:100398002608803AFF0080307F02031DD5290130EE
:1003A80025020318D829D929E62983120313A501A0
:1003B800A6010030F7000030F6000030F5000030EC
:1003C800F400A401831203132508AB002B1CED29AC
:1003D800EE29F029F617F4297F30F8007808F60599
:1003E8002B08F8000310780CF7002408F8007808A8
:1003F800F70494280800F80078080319042A052A45
:10040800192AF31F082A092A192A7009FA007109FA
:10041800FB007209FC007309FD00FA0A0319FB0AC4
:100428000319FC0A0319FD0A212A7308FD00720842
:10043800FC007108FB007008FA007308720471046C
:100448007004031D282A292A322A0030F3000030BC
:10045800F2000030F1000030F000B62A9630F900C2
:10046800422A0130F4007408F90701300310FD0C2A
:10047800FC0CFB0CFA0CFF3E031D3A2AFE307D05EE
:10048800031D472A482A352A642A0130F4007408D3
:10049800F9070130FA07003003180130FB07003074
:1004A80003180130FC07003003180130FD07013044
:1004B8000310FD0CFC0CFB0CFA0CFF3E031D5C2A20
:1004C800FF307D05031D692A6A2A492A762A0130E8
:1004D800F9020130F4000310FA0DFB0DFC0DFD0DBF
:1004E800F40B6F2AFC1B792A7A2A802A02307902B7
:1004F80003187F2A802A6B2A7918832A842A8C2A4F
:10050800FF30FA05FF30FB057F30FC05FF30FD05A5
:100518000310F90C7908F400F501F601F701183019
:100528000310F40DF50DF60DF70DFF3E031D942A8B
:100538007408FA047508FB047608FC047708FD04BF
:1005480078080319A82AA92AAE2AF31FAC2AAD2ACB
:10055800AE2AFD177D08F3007C08F2007B08F10045
:100568007A08F000080000307005F80000307105C6
:10057800F90080307205FA007F307305FB007B08B4
:100588007A0479047804031DCA2ACB2AD32A0030B6
:10059800F3000030F2000030F1000030F0000030CD
:1005A8007405F80000307505F90080307605FA000A
:1005B8007F307705FB007B087A0479047804031DF3
:1005C800E62AE72AEF2A0030F7000030F60000306C
:1005D800F5000030F400F31FF22AF32A172B00303D
:1005E800F8000030F9000030FA008030FB00700895
:1005F800F8027108031C710F022B032BF902720811
:10060800031C720F082B092BFA027308031C730FC3
:100618000E2B0F2BFB027B08F3007A08F2007908F7
:10062800F1007808F000F71F1A2B1B2B3F2B003026
:10063800F8000030F9000030FA008030FB00740840
:10064800F8027508031C750F2A2B2B2BF902760864
:10065800031C760F302B312BFA027708031C770F17
:10066800362B372BFB027B08F7007A08F60079084F
:10067800F5007808F4008030F3068030F706770834
:100688007302031D512B76087202031D512B750846
:100698007102031D512B740870020318542B552B3B
:1006A800572B0310582B0314080083120313081543
:1006B80008145E2B8312031308108E018F01881C07
:1006C800662B672B632B101488186B2B6C2B682BED
:1006D80010100E08F0000F08F100F201F3010030CD
:1006E8000A128A11FF210A128A117308831203134E
:1006F800B7007208B6007108B5007008B40042303F
:10070800F3006B30F2003330F1003330F00037087B
:10071800F7003608F6003508F5003408F4000A1228
:100728008A1126200A128A11730883120313BB0048
:100738007208BA007108B9007008B8003B08F300E5
:100748003A08F2003908F1003808F0004030F700A4
:10075800A030F6000030F5000030F4000A128A11CB
:10076800B7220A128A110318BA2BBB2BC42B0A30E2
:100778008312031386000130BE000030BF00CA2B6D
:100788000530831203138600BE01BF012130831296
:100798000313AE007530AD00AD0BD02BAE0BD02BD4
:1007A800D52B08008C1DD92BDA2B332C1412141BD3
:1007B800DE2BDF2BE32B941FE22BE32BE82B130814
:1007C800C00014139413141683160313941AED2BF4
:1007D800EE2B0A2C1419F12BF22B0A2C831203137B
:1007E8001308C0008C11141683160313141CFD2B58
:1007F800FE2BF82B8312031313088800133083127F
:100808000313AF00AF0B062C092C302C941A0D2CB7
:100818000E2C302C141D112C122C302C8312031387
:100828001308C0008316031314100A128A115923DF
:100838000A128A11831203133E0893001416133008
:1008480083120313AF00AF0B272C2A2C8316031334
:1008580014182F2C302C2A2C831203138C113208D5
:10086800FF0031088A00300E8300FE0E7E0E09005C
:1008780083160317880189018316031385018601EE
:1008880002308800890183120313850186018801DB
:1008980089018B170B17831603138C150C138B12F6
:1008A800831203138C110C130B100B1183160313F3
:1008B8000F088F3940388F000F14831203139010DC
:1008C800CF309005101050300A128A116E240A1287
:1008D8008A11080083120313B30033088316031325
:1008E8009300363083120313940080308316031369
:1008F800940001309100871507168B170B17831288
:1009080003138C11831603138C1508000A128A111D
:0E0918003C240A128A118F2C0A128A11102810
:08400000FF3FFF3FFF3FFF3FC0
:04400E00D420FF3F7C
:00000001FF
