:060000000A128A1110280B
:10000800FE00030E83120313B0000A08B1007F0834
:10001800B2000A128A11CF2B0A128A1113288312EE
:100028000313B401B501B601B701B801B901BA01AA
:10003800BB01BC01BD01BE0183010A128A11832CD8
:100048007708803983120313A4007708F80078072B
:10005800AB00F61F3028312832282B142B0803193F
:100068003628372847282B0A031D3B283C284428D4
:100078000030F7000030F6000030F5000030F400E2
:10008800F617F7014F280030F7000030F60000306F
:10009800F5000030F40073088039F8007808A406E9
:1000A8007308F8007807AC00F21F5B285C285D280D
:1000B8002C142C0803196128622872282C0A031DA5
:1000C800662867286F280030F3000030F2000030FF
:1000D800F1000030F000F217F3017A280030F30045
:1000E8000030F2000030F1000030F00073087204B4
:1000F80071047004031D812882289B280030F700B2
:100108000030F6000030F5000030F4008030F604CE
:100118007F30F7042408F8007808F7047708F3001C
:100128007608F2007508F1007408F000FC292B0825
:10013800031D9F28A028A9280030F3000030F200F2
:100148000030F1000030F000FC292B08F800F9011C
:100158007908FB002C087802FA00031CFB037A08D4
:100168007F3EA5007B080318013E003EA6007708E5
:10017800A3007608A2007508A1007408A00000304A
:10018800F7000030F6000030F5000030F4000030D1
:10019800AA000030A9000030A8000030A700AC0178
:1001A80025292C080319D928DA28FA280130F8005B
:1001B8000310A00DA10DA20DA30DF80BDC28013032
:1001C800F8000310F40DF50DF60DF70DF80BE52802
:1001D800AA1FEF28F028F12874140130F800031042
:1001E800A70DA80DA90DAA0DF80BF3287308230273
:1001F800031D082972082202031D0829710821021B
:10020800031D082970082002031C0B290C29212929
:100218002A177008A0027108031C710F14291529E8
:10022800A1027208031C720F1A291B29A202730863
:10023800031C730F20292129A3020130F800780834
:10024800AC071A302C02031C2A292B29D52823088D
:10025800220421042004031932293329522927149E
:1002680052290130F8000310F40DF50DF60DF70DC5
:10027800F80B3729AA1F4129422943297414013050
:10028800F8000310A70DA80DA90DAA0DF80B452914
:10029800FF30A5070318A60AFF30A607F61F552941
:1002A80056293529AC01AA1F5A295B297729FF301D
:1002B8002705F800FF302805F900FF302905FA0066
:1002C8007F302A05FB007B087A0479047804031937
:1002D8006E296F297229AC01AC0A7729741C75291B
:1002E800762977296F292C0803197B297C29AD29C0
:1002F8000130F407003003180130F5070030031807
:100308000130F607003003180130F707771C8D29F4
:100318008E29AD297408F8007508F9007608FA00E6
:100328007708FB000130FC007B0DFB0CFA0CF90C84
:10033800F80CFC0B98297B08F7007A08F600790876
:10034800F5007808F4000130A5070318A60A003064
:10035800A6072608803AFF0080307F02031DB629D1
:10036800FF302502031CB929BA29C829FF30831296
:100378000313A5000030A6000030F7000030F60097
:100388000030F5000030F400831203132608803A89
:10039800FF0080307F02031DD32901302502031896
:1003A800D629D729E42983120313A501A601003011
:1003B800F7000030F6000030F5000030F400A4012A
:1003C800831203132508AB002B1CEB29EC29EE291B
:1003D800F617F2297F30F8007808F6052B08F800A0
:1003E8000310780CF7002408F8007808F70492281E
:1003F8000800F80078080319022A032A172AF31FAD
:10040800062A072A172A7009FA007109FB007209DF
:10041800FC007309FD00FA0A0319FB0A0319FC0A18
:100428000319FD0A1F2A7308FD007208FC007108F1
:10043800FB007008FA007308720471047004031D4D
:10044800262A272A302A0030F3000030F200003034
:10045800F1000030F000B42A9630F900402A01304B
:10046800F4007408F90701300310FD0CFC0CFB0CB8
:10047800FA0CFF3E031D382AFE307D05031D452A70
:10048800462A332A622A0130F4007408F907013039
:10049800FA07003003180130FB0700300318013059
:1004A800FC07003003180130FD0701300310FD0C74
:1004B800FC0CFB0CFA0CFF3E031D5A2AFF307D058D
:1004C800031D672A682A472A742A0130F902013075
:1004D800F4000310FA0DFB0DFC0DFD0DF40B6D2A55
:1004E800FC1B772A782A7E2A0230790203187D2A93
:1004F8007E2A692A7918812A822A8A2AFF30FA05EF
:10050800FF30FB057F30FC05FF30FD050310F90CBB
:100518007908F400F501F601F70118300310F40D1D
:10052800F50DF60DF70DFF3E031D922A7408FA0427
:100538007508FB047608FC047708FD04780803199D
:10054800A62AA72AAC2AF31FAA2AAB2AAC2AFD1787
:100558007D08F3007C08F2007B08F1007A08F000BF
:10056800080000307005F80000307105F90080308F
:100578007205FA007F307305FB007B087A04790462
:100588007804031DC82AC92AD12A0030F300003094
:10059800F2000030F1000030F00000307405F8007F
:1005A80000307505F90080307605FA007F30770550
:1005B800FB007B087A0479047804031DE42AE52A01
:1005C800ED2A0030F7000030F6000030F50000306A
:1005D800F400F31FF02AF12A152B0030F800003040
:1005E800F9000030FA008030FB007008F80271084A
:1005F800031C710F002B012BF9027208031C720FE8
:10060800062B072BFA027308031C730F0C2B0D2BF8
:10061800FB027B08F3007A08F2007908F1007808F9
:10062800F000F71F182B192B3D2B0030F800003075
:10063800F9000030FA008030FB007408F8027508F1
:10064800031C750F282B292BF9027608031C760F3B
:100658002E2B2F2BFA027708031C770F342B352B00
:10066800FB027B08F7007A08F6007908F50078089D
:10067800F4008030F3068030F70677087302031D14
:100688004F2B76087202031D4F2B75087102031D4C
:100698004F2B740870020318522B532B552B031041
:1006A800562B031408008312031308145B2B8312C0
:1006B800031308108E018F01881C632B642B602B99
:1006C80010148818682B692B652B10100E08F00081
:1006D8000F08F100F201F30100300A128A11FD211E
:1006E8000A128A11730883120313B7007208B6003E
:1006F8007108B5007008B4004230F3006B30F200A6
:100708003330F1003330F0003708F7003608F600D0
:100718003508F5003408F4000A128A1124200A1258
:100728008A11730883120313BB007208BA00710898
:10073800B9007008B8004130F3006030F2000030B2
:10074800F1000030F0003B08F7003A08F6003908DD
:10075800F5003808F4000A128A11B5220A128A1123
:10076800031CB72BB82BBF2B013083120313BC001B
:100778000030BD00C32B83120313BC01BD0121301F
:1007880083120313AE007530AD00AD0BC92BAE0B51
:10079800C92BCE2B08008C1DD22BD32B2C2C14123A
:1007A800141BD72BD82BDC2B941FDB2BDC2BE12B3A
:1007B8001308BE0014139413141683160313941A03
:1007C800E62BE72B032C1419EA2BEB2B032C8312B3
:1007D80003131308BE008C11141683160313141C7C
:1007E800F62BF72BF12B8312031313088800133011
:1007F80083120313AF00AF0BFF2B022C292C941A82
:10080800062C072C292C141D0A2C0B2C292C83129E
:1008180003131308BE008316031314100A128A1157
:1008280057230A128A11831203133C0893001416E3
:10083800133083120313AF00AF0B202C232C831625
:1008480003131418282C292C232C831203138C111E
:100858003208FF0031088A00300E8300FE0E7E0E3B
:10086800090083160317880189018316031385017C
:1008780086010230880089018312031385018601ED
:10088800880189018B170B17831603138C110C131E
:100898008B12831203138C110C130B100B1183167C
:1008A80003130F088F3940388F000F148312031376
:1008B8009010CF309005101050300A128A1167241A
:1008C8000A128A11080083120313B300330883162F
:1008D8000313930036308312031394008030831679
:1008E8000313940001309100871507168B170B1717
:1008F800831203138C11831603138C1508000A1234
:100908008A1135240A128A11882C0A128A11102891
:08400000FF3FFF3FFF3FFF3FC0
:04400E00D420FF3F7C
:00000001FF
