:060000000A128A110C280F
:10000800FE00030EF0000A08F1000A128A115E2CA5
:100018000A128A110F28FA01FB0183132030840089
:100028003C300A128A114A250A128A1183010A12DF
:100038008A111E28103083120313CC003930CB00EC
:100048000D30CA00CA0B2628CB0B2628CC0B262835
:100058000A128A11FD230A128A110A128A1104252A
:100068000A128A11013083120313AE000030AF0068
:100078000A128A1167220A128A110A128A11142591
:100088000A128A110A128A1141250A128A1151305C
:10009800F2000030F3000A128A112E250A128A1182
:1000A8000030F200F3000A128A1130240A128A1171
:1000B800730883120313B9007208B8000A128A1170
:1000C80038250A128A11033083120313CC008A30B0
:1000D800CB005530CA00CA0B6F28CB0B6F28CC0B4E
:1000E8006F280A128A1141250A128A110130F2007A
:1000F8000130F3000A128A112E250A128A110030E3
:10010800F200F3000A128A1130240A128A117308C5
:1001180083120313B7007208B6000A128A11382531
:100128000A128A11033083120313CC008A30CB00E1
:100138005530CA00CA0B9E28CB0B9E28CC0B9E2894
:100148000A128A1141250A128A111130F20001306F
:10015800F3000A128A112E250A128A110030F200C1
:10016800F3000A128A1130240A128A1173088312C2
:100178000313B3007208B2000A128A1138250A1252
:100188008A11033083120313CC008A30CB00553018
:10019800CA00CA0BCD28CB0BCD28CC0BCD28F60135
:1001A800F60A01300A128A11C4220A128A11013091
:1001B8000A128A1187240A128A11F601F60A0230F5
:1001C8000A128A11C4220A128A110A300A128A11E2
:1001D80087240A128A110D30F60002300A128A1199
:1001E800C4220A128A1111300A128A1187240A12AB
:1001F8008A110F30F60001300A128A11C4220A123D
:100208008A11831203133808203E0A128A11C82360
:100218000A128A111030F60002300A128A11C4221A
:100228000A128A11831203133608303E0A128A1101
:10023800C8230A128A110A3083120313BC00003043
:10024800BD000A30F2000030F3003308F500320830
:10025800F4000A128A1110230A128A1173088312F1
:100268000313BF007208BE000A128A1154230A122F
:100278008A11831203133C08BB000A30BC0000300B
:10028800BD003308BF003208BE000A128A11542389
:100298000A128A11831203133C08BA000630F600CA
:1002A80002300A128A11C4220A128A118312031315
:1002B8003B08303E0A128A11C8230A128A11831297
:1002C80003133A08303E0A128A11C8230A128A1107
:1002D800DF300A128A11C8230A128A1115300A124D
:1002E8008A1187240A128A118312031338033904E6
:1002F800031D7F298029A929360837040319852970
:100308008629A9293003310403198B298C29A929A5
:1003180086170613023083120313CC000430CB0077
:10032800B930CA00CA0B9629CB0B9629CC0B962953
:100338009D2983120313861306133708B500360860
:10034800B4000130B0000030B10038083904031D92
:10035800AE29AF29D02935083706031DB529340839
:1003680036060319B829B929D02986130617023089
:1003780083120313CC000430CB00B930CA00CA0B77
:10038800C329CB0BC329CC0BC329CA298312031356
:1003980086130613B001B1012E032F04031DD529BE
:1003A800D629DE29360899000C120230AE0000303A
:1003B800AF00EC2902302E062F04031DE429E5299D
:1003C800EC29320899000C120130AE000030AF0061
:1003D800363083120313CC004530CB003630CA00C8
:1003E800CA0BF429CB0BF429CC0BF42900004628BE
:1003F8000A128A110C28003083120313C00000303F
:10040800BF000030BE000030BD00750874047304DE
:1004180072040319102A112A5E2AC101C10A212A6D
:100428000130BC000310F20DF30DF40DF50DBC0BFB
:10043800162A0130BC003C08C107F51F242A252ACA
:10044800142A0130BC000310BD0DBE0DBF0DC00D38
:10045800BC0B272A75087902031D3C2A7408780208
:10046800031D3C2A73087702031D3C2A7208760292
:10047800031C3F2A402A4F2A7208F6027308031CFD
:10048800730FF7027408031C740FF8027508031C35
:10049800750FF9023D1401300310F50CF40CF30C40
:1004A800F20CFF3E031D502A0130C102031D5D2AD4
:1004B8005E2A252A4008F5003F08F4003E08F300AC
:1004C8003D08F200080000300A128A11AC240A1212
:1004D8008A113430F700F130F600F60B712AF70B69
:1004E800712A762A03300A128A11EA240A128A111A
:1004F8000D30F700FB30F600F60B802AF70B802A48
:10050800852A03300A128A11EA240A128A111D3038
:10051800F7009130F600F60B8F2AF70B8F2A03307D
:100528000A128A11EA240A128A1102300A128A115E
:10053800EA240A128A1102300A128A11EA240A12DB
:100548008A1108300A128A11EA240A128A11003024
:100558000A128A11EA240A128A110C300A128A1124
:10056800EA240A128A1100300A128A11EA240A12AD
:100578008A1106300A128A11EA240A128A1108001E
:1005880083120313BC003C03031DCB2ACC2AEB2A9D
:1005980076087F3EBF003F08F70004300310F70CD1
:1005A800FF3E031DD22A7708BD003F080F39BE0061
:1005B8003D080A128A11EA240A128A1183120313C7
:1005C8003E080A128A11EA240A128A110F2B0230F5
:1005D8003C06031DF02AF12A0F2B7608BF3EBF0008
:1005E8003F08F70004300310F70CFF3E031DF72AFD
:1005F8007708BD003F080F39BE003D080A128A116E
:10060800EA240A128A11831203133E080A128A1175
:10061800EA240A128A110800F701F8017208730423
:100628000319172B182B4F2BF901F90A262B013028
:100638000310F20DF30DFF3E031D1C2B0130F600D5
:100648007608F907F31F292B2A2B1B2B01300310DF
:10065800F70DF80DFF3E031D2B2B73087502031DC4
:10066800372B72087402031C3A2B3B2B422B72085F
:10067800F4027308031CF503F50277140130031024
:10068800F30CF20CFF3E031D432B0130F902031D4E
:100698004E2B4F2B2A2B7808F3007708F20008001E
:1006A800831203133C083D0403195B2B5C2B8B2B33
:1006B800C101C10A6A2B01300310BC0DBD0DFF3EFC
:1006C800031D602B0130C0004008C107BD1F6D2B02
:1006D8006E2B5F2B3D083F02031D742B3C083E0226
:1006E800031C772B782B7E2B3C08BE023D08031C8D
:1006F800BF03BF0201300310BD0CBC0CFF3E031D3D
:100708007F2B0130C102031D8A2B8B2B6E2B3F08D8
:10071800BD003E08BC000800283083120313940073
:10072800831603139101831203134208C60043087A
:10073800C7004408C8004508C90002300310C60DA8
:10074800C70DC80DC90DFF3E031DA22B4908F500B2
:100758004808F4004708F3004608F2000030F900A2
:100768007A30F8001230F7000030F6000A128A11C9
:10077800FF210A128A117208FF3E831603139300A1
:100788009401871507160800F60076080F39F4005B
:100798007608F039F5008312031308157508F3007D
:1007A80004300310F30CFF3E031DD52B73080A1207
:1007B8008A11AC240A128A118312031388151A307D
:1007C800F300F30BE52B0000831203138811740860
:1007D8000A128A11AC240A128A118312031388158B
:1007E8001A30F300F30BF62B000083120313881161
:1007F80008008316031788018901831603138501EE
:100808008601880189018312031385018601880105
:1008180089018316031307138B170B178C110C13FD
:100828008B12831203138C110C130B100B117030E5
:10083800831603138F040F14003083120313C500AB
:100848000130C4008630C300A030C2000A128A11E9
:1008580090230A128A1108000A128A1121250A1205
:100868008A118316031391150A128A1121250A1277
:100878008A11831203131308F400F5017408F600B3
:100888007508F7000A128A1121250A128A117203C3
:100898007304031D502C512C552C831603139112ED
:1008A800582C83160313911611167708F30076084F
:1008B800F2000800831203138C1D632C642C652C32
:1008C8008C110C1E682C692C6A2C0C128C1E6D2C39
:1008D8006E2C6F2C8C120C1F722C732C742C0C1316
:1008E8000B1D772C782C7B2CB33081000B110B1C43
:1008F8007E2C7F2C802C0B1071088A00700E8300D0
:10090800FE0E7E0E0900F900F701F8019E2C77080B
:10091800790784000A128A11CE240A128A110A124F
:100928008A11C8230A128A110130F7070318F80A36
:100938000030F8077708790784000A128A11CE2454
:100948000A128A11003A031DAA2CAB2C8B2C080022
:10095800F200721CB02CB12CB52C831203130816AC
:10096800B82C831203130812F21CBB2CBC2CBE2C0F
:100978008816BF2C8812721DC22CC32CC52C0817D0
:10098800C62C0813F21DC92CCA2CCC2C8817CD2CC8
:100998008813080004308A000408840A8207003497
:1009A800573465346C3463346F346D3465342134B2
:1009B8000034543465346D3470343A34203400349F
:1009C80050342D343E34003443340034F50083125F
:1009D8000313081175080A128A11AC240A128A1125
:1009E8008312031388150B30F4006230F300F30B05
:1009F800FB2CF40BFB2C0000831203138811080056
:100A08000C308316031399001812831203139817D6
:100A1800831603139816831203130C121816080072
:100A280000300A128A11EA240A128A1101300A12C5
:100A38008A11EA240A128A1108008316031314196A
:100A4800262D272D212D11081F39031D2C2D2D2D65
:100A5800212D08000A128A1121250A128A1172080A
:100A680083120313930008000A128A1121250A121F
:100A78008A1183160313111508000A128A112125F9
:100A88000A128A11831603131114080064008001E6
:0C0A9800840A04060319003404064B2DE8
:08400000FF3FFF3FFF3FFF3FC0
:04400E00D420FF3F7C
:00000001FF
