:060000000A128A110C280F
:10000800FE00030EF0000A08F1000A128A11FB2C08
:100018000A128A110F280A128A11EF250A128A1168
:10002800FA000A128A11F0250A128A11FB008313BA
:10003800203084003C300A128A11E7250A128A11FE
:1000480083010A128A112828103083120313CC0066
:100058003930CB000D30CA00CA0B3028CB0B302802
:10006800CC0B30280A128A119A240A128A110A1211
:100078008A11A1250A128A11013083120313AE00D6
:100088000030AF000A128A1104230A128A110A12D8
:100098008A11B1250A128A110A128A11DE250A125A
:1000A8008A115130F2000030F3000A128A11CB2570
:1000B8000A128A110030F200F3000A128A11CD24C4
:1000C8000A128A11730883120313B9007208B80060
:1000D8000A128A11D5250A128A11033083120313D2
:1000E800CC008A30CB005530CA00CA0B7928CB0B1C
:1000F8007928CC0B79280A128A11DE250A128A116E
:100108000130F2000130F3000A128A11CB250A12DD
:100118008A110030F200F3000A128A11CD240A1263
:100128008A11730883120313B7007208B6000A1203
:100138008A11D5250A128A11033083120313CC00C1
:100148008A30CB005530CA00CA0BA828CB0BA82888
:10015800CC0BA8280A128A11DE250A128A1111303E
:10016800F2000130F3000A128A11CB250A128A1113
:100178000030F200F3000A128A11CD240A128A1103
:10018800730883120313B5007208B4000A128A11A7
:10019800D5250A128A11033083120313CC008A3042
:1001A800CB005530CA00CA0BD728CB0BD728CC0BAD
:1001B800D728F601F60A01300A128A1161230A12B9
:1001C8008A1101300A128A1124250A128A11F601AD
:1001D800F60A02300A128A1161230A128A110A30B9
:1001E8000A128A1124250A128A110D30F6000230EB
:1001F8000A128A1161230A128A1111300A128A110D
:1002080024250A128A110F30F60001300A128A11C9
:1002180061230A128A11831203133808203E0A1236
:100228008A1165240A128A111030F60002300A1267
:100238008A1161230A128A11831203133608303E89
:100248000A128A1165240A128A110A3083120313CA
:10025800BC000030BD000A30F2000030F300350861
:10026800F5003408F4000A128A11AD230A128A1123
:10027800730883120313BF007208BE000A128A11A2
:10028800F1230A128A11831203133C08BB000A30B7
:10029800BC000030BD003508BF003408BE000A129B
:1002A8008A11F1230A128A11831203133C08BA0037
:1002B8000630F60002300A128A1161230A128A11E6
:1002C800831203133B08303E0A128A1165240A126E
:1002D8008A11831203133A08303E0A128A116524E0
:1002E8000A128A11DF300A128A1165240A128A1149
:1002F80015300A128A1124250A128A11831203134F
:1003080038033904031D89298A296B2A36083704DA
:1003180003198F2990296B2A033083120313CC0009
:100328008A30CB005530CA00CA0B9829CB0B9829C4
:10033800CC0B9829831203138613061722308312D5
:100348000313CB00C230CA00CA0BA829CB0BA829BB
:1003580000008312031386130613402A0A128A1117
:10036800DE250A128A115130F2000030F3000A1219
:100378008A11CB250A128A110030F200F3000A1202
:100388008A11CD240A128A11730883120313B90043
:100398007208B8000A128A11D5250A128A11033088
:1003A80083120313CC000830CB007630CA00CA0B86
:1003B800DB29CB0BDB29CC0BDB2900000A128A11C5
:1003C800DE250A128A110130F2000130F3000A1208
:1003D8008A11CB250A128A110030F200F3000A12A2
:1003E8008A11CD240A128A11730883120313B700E5
:1003F8007208B6000A128A11D5250A128A1103302A
:1004080083120313CC008A30CB005530CA00CA0BC4
:100418000B2ACB0B0B2ACC0B0B2A0A128A11DE25CE
:100428000A128A111130F2000130F3000A128A11FF
:10043800CB250A128A110030F200F3000A128A1141
:10044800CD240A128A11730883120313B5007208A7
:10045800B4000A128A11D5250A128A1103308312B0
:100468000313CC008A30CB005530CA00CA0B3A2A95
:10047800CB0B3A2ACC0B3A2A8312031338083904D7
:10048800031D472A482AB2291F3083120313CC00C0
:100498007130CB001D30CA00CA0B502ACB0B502A32
:1004A800CC0B502A572A83120313861706132230BF
:1004B80083120313CB00C230CA00CA0B612ACB0BCC
:1004C800612A000083120313861306136D2A86130C
:1004D80006132E032F04031D722A732A7B2A36085B
:1004E80099000C120230AE000030AF00892A0230A9
:1004F8002E062F04031D812A822A892A340899008E
:100508000C120130AE000030AF00363083120313F6
:10051800CC004530CB003630CA00CA0B912ACB0B31
:10052800912ACC0B912A000050280A128A110C2813
:10053800003083120313C0000030BF000030BE003B
:100548000030BD0075087404730472040319AD2AE1
:10055800AE2AFB2AC101C10ABE2A0130BC00031021
:10056800F20DF30DF40DF50DBC0BB32A0130BC00F0
:100578003C08C107F51FC12AC22AB12A0130BC00B4
:100588000310BD0DBE0DBF0DC00DBC0BC42A7508F0
:100598007902031DD92A74087802031DD92A730821
:1005A8007702031DD92A72087602031CDC2ADD2A89
:1005B800EC2A7208F6027308031C730FF70274081A
:1005C800031C740FF8027508031C750FF9023D141B
:1005D80001300310F50CF40CF30CF20CFF3E031D74
:1005E800ED2A0130C102031DFA2AFB2AC22A40085B
:1005F800F5003F08F4003E08F3003D08F20008004B
:1006080000300A128A1149250A128A113430F7007B
:10061800F130F600F60B0E2BF70B0E2B132B0330D5
:100628000A128A1187250A128A110D30F700FB3049
:10063800F600F60B1D2BF70B1D2B222B03300A128D
:100648008A1187250A128A111D30F7009130F600A9
:10065800F60B2C2BF70B2C2B03300A128A1187254B
:100668000A128A1102300A128A1187250A128A117F
:1006780002300A128A1187250A128A1108300A12D2
:100688008A1187250A128A1100300A128A118725D1
:100698000A128A110C300A128A1187250A128A1145
:1006A80000300A128A1187250A128A1106300A12A6
:1006B8008A1187250A128A11080083120313BC00C5
:1006C8003C03031D682B692B882B76087F3EBF00EF
:1006D8003F08F70004300310F70CFF3E031D6F2B93
:1006E8007708BD003F080F39BE003D080A128A117D
:1006F80087250A128A11831203133E080A128A11E7
:1007080087250A128A11AC2B02303C06031D8D2B5B
:100718008E2BAC2B7608BF3EBF003F08F700043095
:100728000310F70CFF3E031D942B7708BD003F080C
:100738000F39BE003D080A128A1187250A128A114C
:10074800831203133E080A128A1187250A128A1196
:100758000800F701F801720873040319B42BB52BCC
:10076800EC2BF901F90AC32B01300310F20DF30D3C
:10077800FF3E031DB92B0130F6007608F907F31F79
:10078800C62BC72BB82B01300310F70DF80DFF3E11
:10079800031DC82B73087502031DD42B720874023D
:1007A800031CD72BD82BDF2B7208F4027308031C09
:1007B800F503F502771401300310F30CF20CFF3E39
:1007C800031DE02B0130F902031DEB2BEC2BC72B8B
:1007D8007808F3007708F2000800831203133C0836
:1007E8003D040319F82BF92B282CC101C10A072C49
:1007F80001300310BC0DBD0DFF3E031DFD2B013064
:10080800C0004008C107BD1F0A2C0B2CFC2B3D085B
:100818003F02031D112C3C083E02031C142C152C0E
:100828001B2C3C08BE023D08031CBF03BF0201305D
:100838000310BD0CBC0CFF3E031D1C2C0130C10273
:10084800031D272C282C0B2C3F08BD003E08BC009C
:1008580008002830831203139400831603139101B0
:10086800831203134208C6004308C7004408C8009F
:100878004508C90002300310C60DC70DC80DC90DC3
:10088800FF3E031D3F2C4908F5004808F4004708BF
:10089800F3004608F2000030F9007A30F800123010
:1008A800F7000030F6000A128A119C220A128A11F7
:1008B8007208FF3E831603139300940187150716E9
:1008C8000800F60076080F39F4007608F039F500CC
:1008D8008312031308157508F30004300310F30C92
:1008E800FF3E031D722C73080A128A1149250A1249
:1008F8008A118312031388151A30F300F30B822C24
:10090800000083120313881174080A128A114925FA
:100918000A128A118312031388151A30F300F30B95
:10092800932C000083120313881108008316031701
:1009380088018901831603138501860188018901CD
:100948008312031385018601880189018316031325
:1009580007138B170B178C110C138B1283120313AD
:100968008C110C130B100B117030831603138F04AA
:100978000F14003083120313C5000130C400863001
:10098800C300A030C2000A128A112D240A128A114B
:1009980008000A128A11BE250A128A118316031347
:1009A80091150A128A11BE250A128A11831203139D
:1009B8001308F400F5017408F6007508F7000A1228
:1009C8008A11BE250A128A1172037304031DED2CC5
:1009D800EE2CF22C831603139112F52C83160313B5
:1009E800911611167708F3007608F20008008312B2
:1009F80003138C1D002D012D022D8C110C1E052DAD
:100A0800062D072D0C128C1E0A2D0B2D0C2D8C1269
:100A18000C1F0F2D102D112D0C130B1D142D152D22
:100A2800182DB33081000B110B1C1B2D1C2D1D2DF7
:100A38000B1071088A00700E8300FE0E7E0E0900EE
:100A4800F900F701F8013B2D7708790784000A12AD
:100A58008A116B250A128A110A128A1165240A1250
:100A68008A110130F7070318F80A0030F8077708E9
:100A7800790784000A128A116B250A128A11003A32
:100A8800031D472D482D282D0800F200721C4D2DFE
:100A98004E2D522D831203130816552D831203135E
:100AA8000812F21C582D592D5B2D88165C2D8812C2
:100AB800721D5F2D602D622D0817632D0813F21D1E
:100AC800662D672D692D88176A2D88130800053053
:100AD8008A000408840A82070034573465346C3469
:100AE80063346F346D3465342134003454346534E0
:100AF8006D3470343A342034003450342D343E345C
:100B0800003443340034F5008312031308117508C8
:100B18000A128A1149250A128A11831203138815A9
:100B28000B30F4006230F300F30B982DF40B982D82
:100B3800000083120313881108000C308316031376
:100B48009900181283120313981783160313981623
:100B5800831203130C121816080000300A128A11A7
:100B680087250A128A1101300A128A1187250A126A
:100B78008A110800831603131419C32DC42DBE2D22
:100B880011081F39031DC92DCA2DBE2D08000A12D0
:100B98008A11BE250A128A11720883120313930060
:100BA80008000A128A11BE250A128A118316031335
:100BB800111508000A128A11BE250A128A11831615
:100BC80003131114080064008001840A0406031941
:0A0BD80000340406E82D0334003455
:08400000FF3FFF3FFF3FFF3FC0
:04400E00D420FF3F7C
:00000001FF
