:060000000A128A110C280F
:10000800FE00030EF0000A08F1000A128A118F2C74
:100018000A128A110F28FA01FB0183132030840089
:100028003E300A128A116C250A128A1183010A12BB
:100038008A111E28103083120313CE003930CD00E8
:100048000D30CC00CC0B2628CD0B2628CE0B26282D
:100058000A128A112D240A128A110A128A11972269
:100068000A128A110A128A1136250A128A110130D7
:1000780083120313B4000030B5000A128A116325F5
:100088000A128A115130F2000030F3000A128A1164
:1000980050250A128A110030F200F3000A128A1160
:1000A80061240A128A11730883120313B7007208B5
:1000B800B6000A128A115A250A128A1103308312CD
:1000C8000313CE008A30CD005530CC00CC0B6A2803
:1000D800CD0B6A28CE0B6A280A128A1163250A12E8
:1000E8008A110130F2000130F3000A128A115025FA
:1000F8000A128A110030F200F3000A128A116124F0
:100108000A128A11730883120313B5007208B40027
:100118000A128A115A250A128A110330831203130C
:10012800CE008A30CD005530CC00CC0B9928CD0BB1
:100138009928CE0B99280A128A1163250A128A1166
:100148001130F2000130F3000A128A1150250A1208
:100158008A110030F200F3000A128A1161240A128F
:100168008A11730883120313B3007208B2000A12CB
:100178008A115A250A128A11033083120313CE00FA
:100188008A30CD005530CC00CC0BC828CD0BC82800
:10019800CE0BC828F601F60A01300A128A11F42299
:1001A8000A128A1101300A128A11B8240A128A1115
:1001B800F601F60A02300A128A11F4220A128A118A
:1001C8000A300A128A11B8240A128A110D30F60070
:1001D80002300A128A11F4220A128A1111300A1204
:1001E8008A11B8240A128A110F30F60001300A1257
:1001F8008A11F4220A128A11831203133608203E48
:100208000A128A11F8230A128A111030F6000230F5
:100218000A128A11F4220A128A118312031334086B
:10022800303E0A128A11F8230A128A110A30831200
:100238000313BE000030BF000A30F2000030F300A4
:100248003308F5003208F4000A128A1140230A1212
:100258008A11730883120313C1007208C0000A12BE
:100268008A1184230A128A11831203133E08BD00DF
:100278000A30BE000030BF003308C1003208C00099
:100288000A128A1184230A128A11831203133E0860
:10029800BC000630F60002300A128A11F4220A1253
:1002A8008A11831203133D08303E0A128A11F8237B
:1002B8000A128A11831203133C08303E0A128A116B
:1002C800F8230A128A11DF300A128A11F8230A1257
:1002D8008A1115300A128A11B8240A128A11831257
:1002E800031336033704031D7A297B29FC293508B3
:1002F800803AFF0080307F02031D842901303402D8
:10030800031C87298829FC29033083120313CE0094
:100318008A30CD005530CC00CC0B9029CD0B9029DC
:10032800CE0B90298312031386170613023083120B
:100338000313CE000430CD00B930CC00CC0BA22979
:10034800CD0BA229CE0BA229A92983120313861348
:100358000613DE290A128A1163250A128A115130FE
:10036800F2000030F3000A128A1150250A128A118D
:100378000030F200F3000A128A1161240A128A116D
:10038800730883120313B7007208B6000A128A11A1
:100398005A250A128A11033083120313CE0008303B
:1003A800CD007630CC00CC0BD729CD0BD729CE0B7E
:1003B800D72900008312031336083704031DE529E3
:1003C800E629AE2986130617023083120313CE00DE
:1003D8000430CD00B930CC00CC0BF029CD0BF0297E
:1003E800CE0BF029F7298312031386130613002A6C
:1003F80083120313861306130A128A1163250A123D
:100408008A116830F2000030F3000A128A11502570
:100418000A128A114930F2000030F3000A128A11D8
:1004280050250A128A110A128A115A250A128A11AB
:10043800033083120313CE000830CD007630CC0091
:10044800CC0B242ACD0B242ACE0B242A00004128C9
:100458000A128A110C28003083120313C2000030DC
:10046800C1000030C0000030BF0075087404730478
:1004780072040319402A412A8E2AC301C30A512A49
:100488000130BE000310F20DF30DF40DF50DBE0B97
:10049800462A0130BE003E08C307F51F542A552AD4
:1004A800442A0130BE000310BF0DC00DC10DC20D9E
:1004B800BE0B572A75087902031D6C2A7408780246
:1004C800031D6C2A73087702031D6C2A72087602D2
:1004D800031C6F2A702A7F2A7208F6027308031C0D
:1004E800730FF7027408031C740FF8027508031CD5
:1004F800750FF9023F1401300310F50CF40CF30CDE
:10050800F20CFF3E031D802A0130C302031D8D2A11
:100518008E2A552A4208F5004108F4004008F300E5
:100528003F08F200080000300A128A11DD240A127E
:100538008A110D30F700FB30F600F60BA12AF70BF5
:10054800A12AA62A03300A128A111C250A128A1126
:100558000430F7003D30F600F60BB02AF70BB02A4E
:10056800B52A03300A128A111C250A128A1108308A
:10057800F7002330F600F60BBF2AF70BBF2A03302B
:100588000A128A111C250A128A1102300A128A11CB
:100598001C250A128A1102300A128A111C250A1215
:1005A8008A1108300A128A111C250A128A11003091
:1005B8000A128A111C250A128A110C300A128A1191
:1005C8001C250A128A1100300A128A111C250A12E7
:1005D8008A1106300A128A111C250A128A1108008B
:1005E80083120313BE003E03031DFB2AFC2A1B2BA8
:1005F80076087F3EC1004108F70004300310F70C6D
:10060800FF3E031D022B7708BF0041080F39C000C9
:100618003F080A128A111C250A128A118312031331
:1006280040080A128A111C250A128A113F2B02302F
:100638003E06031D202B212B3F2B7608BF3EC10011
:100648004108F70004300310F70CFF3E031D272B69
:100658007708BF0041080F39C0003F080A128A1105
:100668001C250A128A118312031340080A128A11E0
:100678001C250A128A110800F701F8017208730490
:100688000319472B482B7F2BF901F90A562B013008
:100698000310F20DF30DFF3E031D4C2B0130F60045
:1006A8007608F907F31F592B5A2B4B2B01300310EF
:1006B800F70DF80DFF3E031D5B2B73087502031D34
:1006C800672B72087402031C6A2B6B2B722B72083F
:1006D800F4027308031CF503F502771401300310C4
:1006E800F30CF20CFF3E031D732B0130F902031DBE
:1006F8007E2B7F2B5A2B7808F3007708F20008002E
:10070800831203133E083F0403198B2B8C2BBB2B3E
:10071800C301C30A9A2B01300310BE0DBF0DFF3E63
:10072800031D902B0130C2004208C307BF1F9D2B39
:100738009E2B8F2B3F084102031DA42B3E0840022D
:10074800031CA72BA82BAE2B3E08C0023F08031C96
:10075800C103C10201300310BF0CBE0CFF3E031DD4
:10076800AF2B0130C302031DBA2BBB2B9E2B4108B4
:10077800BF004008BE00080028308312031394000D
:10078800831603139101831203134408C800450814
:10079800C9004608CA004708CB0002300310C80D3C
:1007A800C90DCA0DCB0DFF3E031DD22B4B08F5001A
:1007B8004A08F4004908F3004808F2000030F9003C
:1007C8001E30F8008430F7008030F6000A128A11D3
:1007D8002F220A128A117208FF3E83160313930010
:1007E8009401871507160800F60076080F39F400FB
:1007F8007608F039F5008312031308157508F3001D
:1008080004300310F30CFF3E031D052C73080A1275
:100818008A11DD240A128A118312031388150630FF
:10082800F300F30B152C00008312031388117408CE
:100838000A128A11DD240A128A11831203138815F9
:100848000630F300F30B262C0000831203138811E3
:10085800080083160317880189018316031385018D
:1008680086018801890183120313850186018801A5
:1008780089018B170B13831603138C110C138B121E
:10088800831203138C110C130B100B118316031313
:100898000F088F3960388F000F140030831203134C
:1008A800C7000130C6008630C500A030C4000A1257
:1008B8008A11C0230A128A1108000A128A114325D4
:1008C8000A128A118316031391150A128A114325F5
:1008D8000A128A11831203131308F400F50174082D
:1008E800F6007508F7000A128A1143250A128A11C0
:1008F80072037304031D812C822C862C8316031328
:100908009112892C83160313911611167708F30098
:100918007608F2000800831203138C1D942C952C82
:10092800962C8C110C1E992C9A2C9B2C0C128C1E1C
:100938009E2C9F2CA02C8C120C1FA32CA42CA52C15
:100948000C130B1DA82CA92CAC2CB33081000B1157
:100958000B1CAF2CB02CB12C0B1071088A00700E38
:100968008300FE0E7E0E0900F900F701F801CF2C76
:100978007708790784000A128A1100250A128A1159
:100988000A128A11F8230A128A110130F70703188C
:10099800F80A0030F8077708790784000A128A11E4
:1009A80000250A128A11003A031DDB2CDC2CBC2C12
:1009B8000800F200721CE12CE22CE62C83120313CF
:1009C8000816E92C831203130812F21CEC2CED2CE8
:1009D800EF2C8816F02C8812721DF32CF42CF62CB0
:1009E8000817F72C0813F21DFA2CFB2CFD2C88177E
:0609F800FE2C881308002C
:100A000005308A000408840A8207003457346534AC
:100A10006C3463346F346D346534213400345434B1
:100A200065346D3470343A342034003450342D340D
:100A30003E34003443340034F500831203130811AC
:100A400075080A128A11DD240A128A11831203130F
:100A500088150330F4009730F300F30B2D2DF40BC1
:100A60002D2D322D831203138811080000300A1235
:100A70008A111C250A128A1101300A128A111C25BA
:100A80000A128A110800831603131419482D492DE0
:100A9000432D11081F39031D4E2D4F2D432D0800E6
:100AA0000A128A1143250A128A117208831203134B
:100AB000930008000A128A1143250A128A1183162C
:100AC0000313111508000A128A1143250A128A110C
:100AD000831603131114080064008001840A0406BD
:080AE0000319003404066D2D1A
:08400000FF3FFF3FFF3FFF3FC0
:04400E00D420FF3F7C
:00000001FF
