:060000000A128A110C280F
:10000800FE00030EF0000A08F1000A128A11302AD5
:100018000A128A110F2883135C30FD000230FE009B
:10002800A430FF004C3084000A128A1195220A126B
:100038008A112030840039300A128A11EA220A1201
:100048008A11F801F901FA0183010A128A112C2890
:100058000A128A11CA210A128A110A128A11332134
:100068000A128A110A128A11B4220A128A110A1271
:100078008A11E1220A128A115130F2000030F3008D
:100088000A128A11CE220A128A110030F200F300F5
:100098000A128A1102220A128A11730883120313A0
:1000A800DB007208DA000A128A11D8220A128A11B1
:1000B800023083120313CB000430CA00B930C900E0
:1000C800C90B6428CA0B6428CB0B64286B280A1256
:1000D8008A11E1220A128A110130F2000130F3007C
:1000E8000A128A11CE220A128A110030F200F30095
:1000F8000A128A1102220A128A1173088312031340
:10010800B3007208B2000A128A11D8220A128A11A0
:10011800023083120313CB000430CA00B930C9007F
:10012800C90B9428CA0B9428CB0B94289B288312BC
:1001380003135A085B040319A228A328A6288512CA
:100148000516AE285A085B04031DAB28AC28AE2858
:1001580005128516023032063304031DB428B5286B
:10016800B7288515BF280230320633040319BD2885
:10017800BE28BF288511C73083120313C900C428BD
:10018800C90BC328C7283B280A128A110C2800303B
:10019800F6000030F5000030F4000030F300831260
:1001A80003133C083B043A0439040319DC28DD280E
:1001B8002A29F701F70AED280130F2000310B90DDA
:1001C800BA0DBB0DBC0DF20BE2280130F20072082B
:1001D800F707BC1FF028F128E0280130F2000310CF
:1001E800F30DF40DF50DF60DF20BF3283C08400263
:1001F800031D08293B083F02031D08293A083E024F
:10020800031D082939083D02031C0B290C291B2949
:100218003908BD023A08031C3A0FBE023B08031C0A
:100228003B0FBF023C08031C3C0FC0027314013093
:100238000310BC0CBB0CBA0CB90CFF3E031D1C29E7
:100248000130F702031D29292A29F1287608BC0064
:100258007508BB007408BA007308B90008000030BC
:100268000A128A1155220A128A110D30F700FB3042
:10027800F600F60B3D29F70B3D29422903300A12F7
:100288008A1177220A128A110430F7003D30F600ED
:10029800F60B4C29F70B4C29512903300A128A1105
:1002A80077220A128A110830F7002330F600F60B7D
:1002B8005B29F70B5B2903300A128A1177220A128D
:1002C8008A1102300A128A1177220A128A11023020
:1002D8000A128A1177220A128A1108300A128A1120
:1002E80077220A128A1100300A128A1177220A121A
:1002F8008A110C300A128A1177220A128A110030E8
:100308000A128A1177220A128A1106300A128A11F1
:1003180077220A128A1108002830831203139400E6
:10032800831603139101831203134108C500420881
:10033800C6004308C7004408C80002300310C50DB2
:10034800C60DC70DC80DFF3E031DA2294808BC00F5
:100358004708BB004608BA004508B9000030C0008D
:100368001E30BF008430BE008030BD000A128A11E2
:10037800CB200A128A11831203133908FF3E831611
:1003880003139300940187150716080083160317B3
:100398008801890183160313850186018801890173
:1003A8008312031385018601880189011F30831692
:1003B8000313960081138B158B170B138C110C13D9
:1003C8008B12831203138C110C130B100B11831651
:1003D80003130F088F3960388F000F140030831211
:1003E8000313C4000130C3008630C200A030C1002E
:1003F8000A128A1190210A128A1108000A128A1117
:10040800C1220A128A118316031391150A128A113E
:10041800C1220A128A11831203131308F400F5018A
:100428007408F6007508F7000A128A11C1220A1228
:100438008A1172037304031D222A232A272A83168A
:10044800031391122A2A831603139116111677089B
:10045800F3007608F2000800831203138C1D352A76
:10046800362A372A8C110C1E3A2A3B2A3C2A0C12AF
:100478008C1E3F2A402A412A8C120C1F442A452AE6
:10048800462A0C130B1D492A4A2A4D2AB3308100EB
:100498000B110B0871088A00700E8300FE0E7E0E89
:1004A8000900F200721C592A5A2A5E2A8312031381
:1004B8000816612A831203130812F21C642A652A9B
:1004C800672A8816682A8812721D6B2A6C2A6E2A77
:1004D80008176F2A0813F21D722A732A752A8817BB
:1004E800762A88130800F50083120313081175088B
:1004F8000A128A1155220A128A11831203138815C7
:100508000330F4009730F300F30B882AF40B882AA1
:100518008D2A83120313881108007E088A007F0839
:1005280082000A128A1191220A128A118000840A12
:1005380004087D0603190034FF0A0319FE0A952AE8
:1005480032343334303439343234333400343034A0
:100558003034303430343034303400340134003402
:1005680000300A128A1177220A128A1101300A12FF
:100578008A1177220A128A110800831603131419A4
:10058800C62AC72AC12A11081F39031DCC2ACD2A19
:10059800C12A08000A128A11C1220A128A11720895
:1005A80083120313930008000A128A11C1220A1247
:1005B8008A1183160313111508000A128A11C12221
:1005C8000A128A11831603131114080064008001AB
:0C05D800840A0406031900340406EB2A10
:08400000FF3FFF3FFF3FFF3FC0
:04400E00D420FF3F7C
:00000001FF
