:060000000A128A110C280F
:10000800FE00030EF0000A08F1000A128A11EF2917
:100018000A128A110F2883135A30FD000230FE009D
:100028006330FF004A3084000A128A1154220A12EF
:100038008A112030840037300A128A11A9220A1244
:100048008A11F801F901FA0183010A128A11942828
:100058000030F6000030F5000030F4000030F30006
:10006800831203133A0839043804370403193D2866
:100078003E288B28F701F70A4E280130F2000310BA
:10008800B70DB80DB90DBA0DF20B43280130F200C7
:100098007208F707BA1F5128522841280130F20088
:1000A8000310F30DF40DF50DF60DF20B54283A0874
:1000B8003E02031D692839083D02031D69283808D6
:1000C8003C02031D692837083B02031C6C286D2875
:1000D8007C283708BB023808031C380FBC023908D3
:1000E800031C390FBD023A08031C3A0FBE027314F1
:1000F80001300310BA0CB90CB80CB70CFF3E031D45
:100108007D280130F702031D8A288B28522876089B
:10011800BA007508B9007408B8007308B700080079
:100128000A128A1189210A128A110A128A11F220E6
:100138000A128A110A128A1173220A128A110A12E1
:100148008A11A0220A128A115130F2000030F300FD
:100158000A128A118D220A128A110030F200F30065
:100168000A128A11C1210A128A1173088312031311
:10017800D9007208D8000A128A1197220A128A1125
:10018800023083120313C9000430C800B930C70015
:10019800C70BCC28C80BCC28C90BCC28D328831272
:1001A8000313580859040319DA28DB28DE288512B6
:1001B8000516E62858085904031DE328E428E6280C
:1001C80005128516C73083120313C700EB28C70B27
:1001D800EA28EE28A3280A128A110C2800300A12ED
:1001E8008A1114220A128A110D30F700FB30F6002A
:1001F800F60BFC28F70BFC28012903300A128A1198
:1002080036220A128A110430F7003D30F600F60B48
:100218000B29F70B0B29102903300A128A113622F1
:100228000A128A110830F7002330F600F60B1A2953
:10023800F70B1A2903300A128A1136220A128A1178
:1002480002300A128A1136220A128A1102300A1260
:100258008A1136220A128A1108300A128A113622A5
:100268000A128A1100300A128A1136220A128A11D9
:100278000C300A128A1136220A128A1100300A1228
:100288008A1136220A128A1106300A128A11362277
:100298000A128A1108002830831203139400831667
:1002A80003139101831203133F08C3004008C400DD
:1002B8004108C5004208C60002300310C30DC40D32
:1002C800C50DC60DFF3E031D61294608BA00450845
:1002D800B9004408B8004308B7000030BE001E301B
:1002E800BD008430BC008030BB000A128A112C206B
:1002F8000A128A11831203133708FF3E8316031369
:1003080093009401871507160800831603178801C0
:1003180089018316031385018601880189018312E7
:10032800031385018601880189011F308316031391
:10033800960081138B158B170B138C110C138B12D2
:10034800831203138C110C130B100B118316031358
:100358000F088F3960388F000F1400308312031391
:10036800C2000130C1008630C000A030BF000A12B0
:100378008A114F210A128A1108000A128A11802252
:100388000A128A118316031391150A128A11802200
:100398000A128A11831203131308F400F501740872
:1003A800F6007508F7000A128A1180220A128A11CB
:1003B80072037304031DE129E229E6298316031356
:1003C8009112E92983160313911611167708F30081
:1003D8007608F2000800831203138C1DF429F5290E
:1003E800F6298C110C1EF929FA29FB290C128C1EEE
:1003F800FE29FF29002A8C120C1F032A042A052A29
:100408000C130B1D082A092A0C2AB33081000B1182
:100418000B0871088A00700E8300FE0E7E0E09001C
:10042800F200721C182A192A1D2A831203130816AF
:10043800202A831203130812F21C232A242A262AAC
:100448008816272A8812721D2A2A2B2A2D2A08176D
:100458002E2A0813F21D312A322A342A8817352AFF
:1004680088130800F50083120313081175080A128F
:100478008A1114220A128A11831203138815033071
:10048800F4009730F300F30B472AF40B472A4C2A61
:1004980083120313881108007E088A007F088200EF
:1004A8000A128A1150220A128A118000840A04084A
:1004B8007D0603190034FF0A0319FE0A542A323450
:1004C8003334303439343234333400343034303423
:1004D80030343034303430340034013400340030B7
:1004E8000A128A1136220A128A1101300A128A1156
:1004F80036220A128A110800831603131419852A52
:10050800862A802A11081F39031D8B2A8C2A802AE3
:1005180008000A128A1180220A128A1172088312AC
:100528000313930008000A128A1180220A128A1102
:1005380083160313111508000A128A1180220A1261
:100548008A11831603131114080064008001840AB9
:0A0558000406031900340406AA2A61
:08400000FF3FFF3FFF3FFF3FC0
:04400E00D420FF3F7C
:00000001FF
