:060000000A128A110C280F
:10000800FE00030EF0000A08F1000A168A151A2CE1
:100018000A128A110F2883179E30FD001B30FE003C
:10002800AB30FF00903084000A168A15CF230A12DD
:100038008A118313C9308400EA300A168A11002015
:100048000A128A11EF01FA01FB0183010A128A11CF
:10005800922E83160313BA006B30B100792E253027
:10006800450603193828392843283A0884004508E2
:10007800831380000130A8002808BA07792EB2013E
:10008800B301831203136A0884000A128A150A202E
:100098000A128A112E3A031D52285328A5288316BE
:1000A800031333170130A800280883120313EA0743
:1000B80083160313BF01C00193280A30F2000030F1
:1000C800F300831603134008F5003F08F4000A12F2
:1000D8008A15BB200A128A11730883160313C000FD
:1000E8007208BF00831203136A0884000A128A1573
:1000F8000A200A128A11D03E83160313A800FF3083
:1001080003180030A9002808BF070318C00A2908E7
:10011800C0070130A800280883120313EA078312D6
:100128006A0884000A128A150A200A128A110A1615
:100138008A15B9230A128A110318A328A42861284A
:10014800AD2883160313BF01C0013316AD2833153C
:10015800CB28013083120313EA07FF306A078400B3
:100168000A128A150A200A128A1183160313C50077
:10017800A800A9012908003A0319C328792E2808DC
:10018800003A03198D2E663A0319AB28792E0030F0
:100198003205A80007303305A900280829040319E7
:1001A800D628D728362E331EDA28DB28DF28063053
:1001B800BF000030C0003108840083130008C1006C
:1001C800840A0008C200840A0008C300840A0008E0
:1001D800C4000430A8002808B1074408F500430803
:1001E800F4004208F3004108F2000030F900003042
:1001F800F8000030F7000030F6000A168A11CE2009
:100208000A128A11031809290A29272983160313B0
:100218004408F5004308F4004208F3004108F200DE
:100228000A168A1586230A128A117508831603137B
:10023800C4007408C3007308C2007208C100033008
:10024800B2040030B30483160313B801B90144089B
:10025800F5004308F4004208F3004108F2000030BA
:10026800F9000030F8000030F7000030F6000A16F8
:100278008A1549260A128A11031843294429442A4F
:10028800031083160313430D440D823EB800FF305C
:1002980003180030B900FF30B8070318B90AFF3057
:1002A800B9070330F2000030F3003908F5003808C8
:1002B800F4000A128A15BB200A128A1173088316E1
:1002C8000313B9007208B8000A3083120313A000A0
:1002D8000030A10083160313390883120313A30007
:1002E80083160313380883120313A2000A168A110F
:1002F80065200A128A118312031321088316031337
:10030800B90083120313200883160313B800B91F1A
:100318008E298F299529FF30B8070318B90AFF30AD
:10032800B9073803FF3A0A128A159D240A128A115E
:1003380083120313450883160313BE0083120313A5
:10034800440883160313BD0083120313430883165E
:100358000313BC0083120313420883160313BB0064
:10036800440883120313AB00831603134308831254
:100378000313AA0083160313420883120313A90068
:1003880083160313410883120313A800831603136B
:100398003E0883120313AF00831603133D0883122C
:1003A8000313AE00831603133C0883120313AD0036
:1003B800831603133B0883120313AC000A128A1531
:1003C80058210A128A11831203132B088316031368
:1003D800BE00831203132A0883160313BD00831279
:1003E8000313290883160313BC0083120313280878
:1003F80083160313BB003E08F5003D08F4003C08D3
:10040800F3003B08F2003F30F9008030F80000307C
:10041800F7000030F6000A168A11CE200A128A1157
:100428000318172A182A212AFF3083160313B8073E
:100438000318B90AFF30B907442A831603133E0884
:10044800F5003D08F4003C08F3003B08F200413099
:10045800F9002030F8000030F7000030F6000A16E6
:100468008A11CE200A128A11031C3B2A3C2A442AEC
:10047800013083160313B8070318B90A0030B90707
:10048800831603134008803AFF0080307F02031D63
:100498004F2A0D303F020318522A532A9A2A8316EC
:1004A80003133F080A168A119B230A128A11831222
:1004B80003134508D9004408D8004308D700420868
:1004C800D60083160313440883120313DD00831632
:1004D8000313430883120313DC0083160313420833
:1004E80083120313DB0083160313410883120313DB
:1004F800DA000A168A11A8250A128A118312031330
:10050800590883160313C40083120313580883166B
:100518000313C30083120313570883160313C2007F
:1005280083120313560883160313C100831603139B
:100538003908803AFF0080307F02031DA52A0A305F
:1005480038020318A82AA92AFA2A8316031344088A
:10055800F5004308F4004208F3004108F2000030B7
:10056800F9000030F8000030F7000030F6000A16F5
:100578008A1549260A128A110318C32AC42A6C2B21
:1005880083160313440883120313D8008316031336
:10059800430883120313D7008316031342088312F8
:1005A8000313D60083160313410883120313D500DF
:1005B8000A128A15E0200A128A11831203135808B6
:1005C800570456045504031DEA2AEB2A6C2B83169C
:1005D80003133908803AFF0080307F02031DF62A92
:1005E80002303802031CF92AFA2A6C2B83160313EB
:1005F8003E08F5003D08F4003C08F3003B08F20013
:100608004030F9008930F8007030F7005F30F600AC
:100618000A168A11CE200A128A110318142B152BD8
:100628001E2BF73083160313B8070318B90AFF30D7
:10063800B907262BF83083160313B8070318B90A2D
:10064800FF30B90738080A128A159D240A128A1140
:1006580083120313450883160313BE008312031382
:10066800440883160313BD0083120313430883163B
:100678000313BC0083120313420883160313BB0041
:100688004408F5004308F4004208F3004108F2006A
:100698003E08F9003D08F8003C08F7003B08F60062
:1006A8000A168A1129220A128A1175088316031359
:1006B800B7007408B6007308B5007208B4000030BB
:1006C800C4000030C3000030C2000030C100EE2B6F
:1006D80083160313440883120313D80083160313E5
:1006E800430883120313D7008316031342088312A7
:1006F8000313D60083160313410883120313D5008E
:100708000A128A15E0200A128A1183120313580864
:1007180083160313B70083120313570883160313B2
:10072800B60083120313560883160313B500831209
:100738000313550883160313B400370883120313F1
:10074800A30083160313360883120313A20083162B
:100758000313350883120313A10083160313340807
:1007680083120313A00000300A168A11E1220A122C
:100778008A1183120313230883160313A300831219
:100788000313220883160313A200831203132108FC
:1007980083160313A100831203132008831603137F
:1007A800A0004408A7004308A6004208A500410885
:1007B800A4000A168A1599260A128A1183160313A9
:1007C8002308C4002208C3002108C2002008C10071
:1007D800B801B901C501C50A4508A80001300310D0
:1007E800A80DFF3E031DF32B0310280D693E84005E
:1007F8000A128A150A200A128A11A9000A128A15F1
:100808000A200A128A11AA000A128A150A200A1254
:100818008A11AB000A128A150A200A128A11AC0042
:100828002C083702031D222C2B083602031D222C0C
:100838002A083502031D222C290834020318252C06
:10084800262C272C312C0130A8002808C5070A308F
:100858004506031D302C312CF02B03303205A8003F
:1008680000303305A9002808290403193C2C3D2C25
:10087800AB2C3A0884002D30831380000130A80087
:100888002808BA07AB2C4508A80001300310A80DAA
:10089800FF3E031D4A2C0310280D693E84000A12EE
:1008A8008A150A200A128A11F2000A128A150A20E9
:1008B8000A128A11F3000A128A150A200A128A11EA
:1008C800F4000A128A150A200A128A11F50037085C
:1008D800F9003608F8003508F7003408F6000A165B
:1008E8008A1598270A128A11750883160313BE0001
:1008F8007408BD007308BC007208BB000030F50026
:100908000030F4000030F3000A30F2003E08F9002D
:100918003D08F8003C08F7003B08F6000A168A155F
:10092800E9260A128A11750883160313BE00740893
:10093800BD007308BC007208BB003A0884003B087D
:10094800303E831380000130A8002808BA07013020
:10095800C502450A031DB12CB22C472CC42C8316A2
:1009680003133A0884003030831380000130A80054
:100978002808BA07FF30B8070318B90AFF30B907C3
:100988003908803AFF0080307F02031DCD2C0130EA
:1009980038020318D02CD12CB32C8316031340082B
:1009A800803AFF0080307F02031DDC2C09303F02B3
:1009B800031CDF2CE02CE52C083083160313C5003C
:1009C800E92C831603133F08C5004508A800A901B0
:1009D8002808BF022908031CC003C00245080319E0
:1009E800F62CF72C002D3A0884002E308313800053
:1009F8000130A8002808BA0745080A128A159D245C
:100A08000A128A1183120313450883160313B000D0
:100A180083120313440883160313AF0083120313CE
:100A2800430883160313AE00831203134208831688
:100A38000313AD00300883120313AF0083160313AA
:100A48002F0883120313AE00831603132E08831294
:100A58000313AD00831603132D0883120313AC0090
:100A680083160313440883120313AB00831603137E
:100A7800430883120313AA00831603134208831240
:100A88000313A90083160313410883120313A80054
:100A98000A128A1558210A128A11831203132B0885
:100AA800D8002A08D7002908D6002808D5000A1235
:100AB8008A15E0200A128A11831203135808831634
:100AC8000313B70083120313570883160313B600E2
:100AD80083120313560883160313B50083120313F6
:100AE800550883160313B400182E4508A8000130D2
:100AF8000310A80DFF3E031D7C2D0310280D693E31
:100B080084000A128A150A200A128A11F2000A12AF
:100B18008A150A200A128A11F3000A128A150A2075
:100B28000A128A11F4000A128A150A200A128A1176
:100B3800F5003708F9003608F8003508F7003408DA
:100B4800F6000A168A1598270A128A11750883165C
:100B58000313BE007408BD007308BC007208BB0014
:100B68000030F5000030F4000030F3000A30F200E5
:100B78003E08F9003D08F8003C08F7003B08F6007D
:100B88000A168A15E9260A128A11750883160313AC
:100B9800BE007408BD007308BC007208BB003A08A8
:100BA80084003B08303E831380000130A8002808E9
:100BB800BA074508A80001300310A80DFF3E031D21
:100BC800E02D0310280D693E84000A128A150A20B8
:100BD8000A128A11F2000A128A150A200A128A11C8
:100BE800F3000A128A150A200A128A11F4000A125E
:100BF8008A150A200A128A11F5003708F900360802
:100C0800F8003508F7003408F6000A168A15E926B0
:100C18000A128A11750883160313B7007408B60000
:100C28007308B5007208B4000130C502450A031DF7
:100C38001E2E1F2E792D2F2E3A0884003030831354
:100C480080000130A8002808BA07FF30BF07031842
:100C5800C00AFF30C0073F084004031D342E352E5C
:100C6800202E792E3F084004031D3B2E3C2E4A2E91
:100C78003708360435043404031D432E442E4A2E07
:100C88000130BF070318C00A0030C0074008803A87
:100C9800803C031D512E3F0845020318542E552E43
:100CA800562E652E831603134008803AA80080301C
:100CB8002802031D612E45083F020318642E652E85
:100CC800652E0330831603133205A8000030330560
:100CD800A900280829040319722E732E792E3A08C0
:100CE80084002D30831380003E28013083120313C3
:100CF800EA07FF306A0784000A128A150A200A12D6
:100D08008A1183160313C5004508031D8C2E8D2EEA
:100D180033283A08840083138001080006308316BC
:100D28000313C8001330C700AD30C600C60B9A2E97
:100D3800C70B9A2EC80B9A2E0A168A1596240A12E1
:100D48008A110A168A1108200A128A110A168A15A7
:100D58009E230A128A110A168A1573230A128A1107
:100D68005130F2000030F3000A168A157C230A126B
:100D78008A110030F200F3000A168A1568240A1254
:100D88008A11730883160313DE007208DD000A1245
:100D98008A11F7270A128A11023083160313C80032
:100DA8000430C700B930C600C60BD82EC70BD82EE2
:100DB800C80BD82EDF2E0A168A1573230A128A1139
:100DC8000130F2000130F3000A168A157C230A125A
:100DD8008A110030F200F3000A168A1568240A12F4
:100DE8008A11730883160313DC007208DB000A12E9
:100DF8008A11F7270A128A11023083160313C800D2
:100E08000430C700B930C600C60B082FC70B082F1F
:100E1800C80B082F0F2F0A168A1573230A128A1176
:100E28001130F2000130F3000A168A157C230A12E9
:100E38008A110030F200F3000A168A1568240A1293
:100E48008A11720883120313A0007308A1000030EE
:100E5800A11BFF30A200A30001300A168A11E1226B
:100E68000A128A1183120313230883160313D4006A
:100E780083120313220883160313D3008312031368
:100E8800210883160313D200831203132008831644
:100E98000313D1000A128A11F7270A128A110230A5
:100EA80083160313C8000430C700B930C600C60B48
:100EB8005B2FC70B5B2FC80B5B2F622FF601F60A5F
:100EC80001300A168A15FD250A128A119130F70099
:100ED8008030F8000A168A1571250A128A11F6015F
:100EE800F60A02300A168A15FD250A128A119A3066
:100EF800F7008030F8000A168A1571250A128A113F
:100F08000D30F60002300A168A15FD250A128A11DC
:100F1800A630F7008030F8000A168A1571250A12E3
:100F28008A110F30F60001300A168A15FD250A12BB
:100F38008A11831603135D08203E0A168A15CA24EF
:100F48000A128A111030F60002300A168A15FD2599
:100F58000A128A11831603135B08303E0A168A1593
:100F6800CA240A128A110630F60002300A168A15B7
:100F7800FD250A128A11A13083120313EA00831691
:100F88000313540883120313EE0083160313530844
:100F980083120313ED0083160313520883120313FD
:100FA800EC0083160313510883120313EB00E63099
:100FB8000A128A112D200A128A11E630F700003031
:100FC800F8000A168A1571250A128A11AA30F70044
:100FD8008030F8000A168A1571250A128A11AF2E78
:100FE8000A128A110C280A168A1591230A128A11E4
:100FF8008316031311150800FF1B0A2883137F1893
:1010080083170008840A0319FF0A080008308A00B9
:101018000408840A820700340034003480343F34E2
:10102800003400342034413400340034C8344234AD
:10103800003400347A344434003440341C344634A8
:1010480000345034C33447340034243474344934BD
:101058008034963418344B342034BC34BE344C3489
:1010680028346B346E344E34F93402341534503429
:10107800EC347834AD346034CA34F23449347134E1
:101088000034003480343F34CD34CC34CC343D3457
:101098000A34D73423343C346F34123483343A342A
:1010A8001734B734D1343834AC34C53427343734F2
:1010B800BD343734863435349534BF34D63433347C
:1010C8007734CC342B3432345F3470348934303450
:1010D800FF34E634DB342E340834E5343C341E3433
:1010E80060344234A2340D34013400340034003406
:1010F8000A340034003400346434003400340034DA
:10110800E834033400340034103427340034003415
:10111800A034863401340034403442340F3400346F
:1011280080349634983400340034E134F53405348E
:101138000034CA349A343B34573465346C346334DD
:101148006F346D34653421340034543465346D346F
:1011580070343A342034003425342E343134663433
:10116800003450342D343E34003443340034F60116
:10117800F701721CC028C128C7287408F60703188D
:10118800F70A7508F70701300310F40DF50DFF3E57
:10119800031DC82801300310F30CF20CFF3E031D99
:1011A800CF2872087304031DDA28DB28BD287708C6
:1011B800F3007608F2000800031083120313570D9A
:1011C800580DDE005E08031DEA28EB28F4280030DD
:1011D800D8000030D7000030D6000030D50057299D
:1011E8005508D9005608DA005708DB005808DC0013
:1011F8001F300310DC0CDB0CDA0CD90CFF3E031D8E
:10120800FD285908DD00D717FF30D505FF30D60572
:10121800FF30D7050030D8059630DE02DE1F1529CD
:10122800162930295E08803A973E03181C291D2983
:101238001E29EB2801300310D80CD70CD60CD50C7E
:10124800FF3E031D1F290130D9005908DE07031D81
:101258002E292F291E29472920305E02031C3529F3
:1012680036294229EB280130D9000310D50DD60DB7
:10127800D70DD80DD90B39290130DE025E08031DC0
:101288004629472937295D0803194B294C2957292D
:10129800D509D609D709D809D50A0319D60A0319D1
:1012A800D70A0319D80A0800831203132B088039B8
:1012B800B5002B08B0003007BB00AA1F64296529B8
:1012C80066293B143B0803196A296B297A293B0ACA
:1012D800031D6F29702978290030AB000030AA005F
:1012E8000030A9000030A800AA1782290030AB00FE
:1012F8000030AA000030A9000030A8002F0880396B
:10130800B0003008B5062F08B0003007B600AE1F91
:101318008E298F299029361436080319942995297E
:10132800A429360A031D99299A29A2290030AF0059
:101338000030AE000030AD000030AC00AE17AC2974
:101348000030AF000030AE000030AD000030AC001F
:1013580036080319B029B129B6293B08031DB52958
:10136800B629BF290030AB000030AA000030A90020
:101378000030A8009C2C2808F2002E080A168A15AE
:101388003F240A128A15730883120313C1007208D6
:10139800C0004008B000B101B201B3013308BA007F
:1013A8003208B9003108B8003008B7004108B00069
:1013B800B101B201B3013308BF003208BE003108E1
:1013C800BD003008BC002908F2002D080A168A154D
:1013D8003F240A128A15730883120313C100720886
:1013E800C0004008B000B101B201B3013008B7072E
:1013F800310803110318013E0319032AB8073208FC
:1014080003110318013E03190A2AB9073308031107
:101418000318013E0319112ABA074108B000B101A7
:10142800B201B3013008BC07310803110318013EAB
:1014380003191F2ABD07320803110318013E0319B7
:10144800262ABE07330803110318013E03192D2A63
:10145800BF072A08F2002C080A168A153F240A1228
:101468008A15730883120313C1007208C00040086C
:10147800B000B101B201B3013008B7073108031158
:101488000318013E0319492AB80732080311031843
:10149800013E0319502AB907330803110318013E06
:1014A8000319572ABA074108B000B101B201B301C4
:1014B8003008BC07310803110318013E0319652AD7
:1014C800BD07320803110318013E03196C2ABE0731
:1014D800330803110318013E0319732ABF070830A4
:1014E800B0000310B70DB80DB90DBA0DB00B752AC1
:1014F8002908F2002C080A168A153F240A128A15B0
:10150800730883120313C1007208C0004008B000BA
:101518004108B100B201B3013008B707310803111F
:101528000318013E0319992AB80732080311031852
:10153800013E0319A02AB907330803110318013E15
:101548000319A72ABA072808F2002D080A168A15CF
:101558003F240A128A15730883120313C100720804
:10156800C0004008B0004108B100B201B301300822
:10157800B707310803110318013E0319C42AB80735
:10158800320803110318013E0319CB2AB90733089F
:1015980003110318013E0319D22ABA070830B00014
:1015A8000310B70DB80DB90DBA0DB00BD42A280821
:1015B800F2002C080A168A153F240A128A157308A5
:1015C80083120313C1007208C0004008B00041082C
:1015D800B100B201B3013008B7073108031103188D
:1015E800013E0319F82AB807320803110318013E0F
:1015F8000319FF2AB907330803110318013E031919
:10160800062BBA072908F2002E080A168A153F2465
:101618000A128A15730883120313C1007208C000E6
:101628004008B0004108B100B201B3013008BC075E
:10163800310803110318013E0319232BBD07320893
:1016480003110318013E03192A2BBE07330803119F
:101658000318013E0319312BBF072A08F2002D0891
:101668000A168A153F240A128A157308831203136F
:10167800C1007208C0004008B0004108B100B201C2
:10168800B3013008BC07310803110318013E0319E0
:101698004E2BBD07320803110318013E0319552BC1
:1016A800BE07330803110318013E03195C2BBF075B
:1016B8002A08F2002E080A168A153F240A128A15EB
:1016C800730883120313C1007208C0004008B000F9
:1016D8004108B100B201B30108300310B00DB10DDB
:1016E800B20DB30DFF3E031D712B3008BC07310846
:1016F80003110318013E0319822BBD073208031199
:101708000318013E0319892BBE0733080311031878
:10171800013E0319902BBF073708B0003808B10005
:101728003908B2003A08B30018300310B30CB20CF1
:10173800B10CB00CFF3E031D992B3008BC073108D3
:1017480003110318013E0319AA2BBD073208031120
:101758000318013E0319B12BBE0733080311031800
:10176800013E0319B82BBF070830B0000310B70DAE
:10177800B80DB90DBA0DB00BBA2B3B083607B0003F
:10178800B101B10D3008823EC00031080318013E96
:10179800FF3EC100EC2B0130B0000310BC0DBD0DA5
:1017A800BE0DBF0DB00BD12BBA1FDB2BDC2BDD2BF5
:1017B8003C140130B0000310B70DB80DB90DBA0DC7
:1017C800B00BDF2BFF30C0070318C10AFF30C10779
:1017D800BE1FEF2BF02BCF2BB601BA1FF42BF52B26
:1017E800112CFF303705B000FF303805B100FF304D
:1017F8003905B2007F303A05B300330832043104AA
:1018080030040319082C092C0C2CB601B60A112C2B
:101818003C1C0F2C102C112C092C36080319152CE4
:10182800162C472C0130BC07003003180130BD07C7
:10183800003003180130BE07003003180130BF071D
:101848003F1C272C282C472C3C08B0003D08B10031
:101858003E08B2003F08B3000130B400330DB30CAA
:10186800B20CB10CB00CB40B322C3308BF003208E8
:10187800BE003108BD003008BC000130C0070318A5
:10188800C10A0030C1074108803AFF0080307F025A
:10189800031D502CFF304002031C532C542C5F2C8A
:1018A8007F3083120313BF008030BE000030BD00BC
:1018B8000030BC00902C831203134108803AFF00CB
:1018C80080307F02031D6A2C0130400203186D2C02
:1018D8006E2C7A2C003083120313BF000030BE0038
:1018E8000030BD000030BC00B501902C83120313FA
:1018F8004008BB00FF30BC05FF30BD057F30BE058A
:101908000030BF053B1C892C8A2C8B2CBE173B084A
:10191800B0000310300CBF003508B0003008BF0419
:101928003F08AB003E08AA003D08A9003C08A800F3
:10193800080083120313D400D41FA32CA42C532E05
:10194800D409D40A5408803A123E031CAC2CAD2C9E
:10195800972D0A30A0000030A1005408F400F501CA
:10196800F41BF5036430F2000030F3000A168A1500
:101978003F270A128A15730883120313A3007208FB
:10198800A2000A168A1165200A128A158312031307
:101998002008C60001300310C60DFF3E031DCF2CE2
:1019A8000310460D593E84000A128A150A200A12AD
:1019B8008A15C7000A128A150A200A128A15C80051
:1019C8000A128A150A200A128A15C9000A128A15EB
:1019D8000A200A128A15CA004A08AB004908AA0058
:1019E8004808A9004708A8006430A0000030A100FA
:1019F8005408A200A301A21BA3030A168A1165209A
:101A08000A128A15831203132008CB000130031031
:101A1800CB0DFF3E031D0B2D03104B0D7D3E8400A7
:101A28000A128A150A200A128A15CC000A128A1587
:101A38000A200A128A15CD000A128A150A200A12EB
:101A48008A15CE000A128A150A200A128A15CF00B2
:101A58004F08AF004E08AE004D08AD004C08AC0072
:101A68000A128A1558210A128A15831203132B08A1
:101A7800D3002A08D2002908D1002808D0000A304B
:101A8800F2000030F3005408F400F501F41BF503EC
:101A98000A168A153F270A128A1572088312031339
:101AA800C60001300310C60DFF3E031D562D03105E
:101AB800460D353E84000A128A150A200A128A1534
:101AC800C7000A128A150A200A128A15C8000A12C3
:101AD8008A150A200A128A15C9000A128A150A20CC
:101AE8000A128A15CA004A08AB004908AA00480821
:101AF800A9004708A8005308AF005208AE005108D3
:101B0800AD005008AC000A128A1558210A128A152D
:101B1800831203132B08C5002A08C4002908C30030
:101B28002808C200FF2F5408803A753E031C9D2DDB
:101B38009E2D262E0A30F2000030F3005408F400DF
:101B4800F501F41BF5030A168A153F270A128A15B0
:101B5800720883120313C60001300310C60DFF3E3E
:101B6800031DB12D0310460D353E84000A128A1557
:101B78000A200A128A15C7000A128A150A200A12B0
:101B88008A15C8000A128A150A200A128A15C9007D
:101B98000A128A150A200A128A15CA004A08AB00D6
:101BA8004908AA004808A9004708A8000A30A00068
:101BB8000030A1005408A200A301A21BA3030A1627
:101BC8008A1165200A128A15831203132008CB0094
:101BD80001300310CB0DFF3E031DED2D03104B0DFF
:101BE800593E84000A128A150A200A128A15CC0066
:101BF8000A128A150A200A128A15CD000A128A15B5
:101C08000A200A128A15CE000A128A150A200A1218
:101C18008A15CF004F08AF004E08AE004D08AD0042
:101C28004C08AC000A128A1558210A128A15831228
:101C380003132B08C5002A08C4002908C300280874
:101C4800C200FF2F5408C60001300310C60DFF3E26
:101C5800031D292E0310460D353E84000A128A15ED
:101C68000A200A128A15C7000A128A150A200A12BF
:101C78008A15C8000A128A150A200A128A15C9008C
:101C88000A128A150A200A128A15CA004A08C500CB
:101C98004908C4004808C3004708C200FF2F540879
:101CA800803A123E031C592E5A2E442F0A30A000A7
:101CB8000030A1005408F400F501F41BF50364306A
:101CC800F2000030F3000A168A153F270A128A1517
:101CD800730883120313A3007208A2000A168A115C
:101CE80065200A128A15831203132008C6000130E2
:101CF8000310C60DFF3E031D7C2E0310460D253E26
:101D080084000A128A150A200A128A15C7000A12C4
:101D18008A150A200A128A15C8000A128A150A208A
:101D28000A128A15C9000A128A150A200A128A1587
:101D3800CA004A08AB004908AA004808A900470891
:101D4800A8006430A0000030A1005408A200A3013C
:101D5800A21BA3030A168A1165200A128A15831288
:101D680003132008CB0001300310CB0DFF3E031DE9
:101D7800B82E03104B0D493E84000A128A150A201A
:101D88000A128A15CC000A128A150A200A128A1524
:101D9800CD000A128A150A200A128A15CE000A12E4
:101DA8008A150A200A128A15CF004F08AF004E087C
:101DB800AE004D08AD004C08AC000A128A15582137
:101DC8000A128A15831203132B08D3002A08D2009B
:101DD8002908D1002808D0000A30F2000030F300AA
:101DE8005408F400F501F41BF5030A168A153F2779
:101DF8000A128A15720883120313C60001300310F1
:101E0800C60DFF3E031D032F0310460D013E84003F
:101E18000A128A150A200A128A15C7000A128A1598
:101E28000A200A128A15C8000A128A150A200A12FC
:101E38008A15C9000A128A150A200A128A15CA00C8
:101E48004A08AB004908AA004808A9004708A800A2
:101E58005308AF005208AE005108AD005008AC005E
:101E68000A128A1558210A128A15831203132B089D
:101E7800C5002A08C4002908C3002808C200FF2F8B
:101E88005408803A753E031C4A2F4B2FD32F0A3033
:101E9800F2000030F3005408F400F501F41BF503D8
:101EA8000A168A153F270A128A1572088312031325
:101EB800C60001300310C60DFF3E031D5E2F031040
:101EC800460D013E84000A128A150A200A128A1554
:101ED800C7000A128A150A200A128A15C8000A12AF
:101EE8008A150A200A128A15C9000A128A150A20B8
:101EF8000A128A15CA004A08AB004908AA0048080D
:101F0800A9004708A8000A30A0000030A100540822
:101F1800A200A301A21BA3030A168A1165200A12B4
:101F28008A15831203132008CB0001300310CB0D50
:101F3800FF3E031D9A2F03104B0D253E84000A1205
:101F48008A150A200A128A15CC000A128A150A2054
:101F58000A128A15CD000A128A150A200A128A1551
:101F6800CE000A128A150A200A128A15CF004F08D5
:101F7800AF004E08AE004D08AD004C08AC000A1288
:101F88008A1558210A128A15831203132B08C500D3
:101F98002A08C4002908C3002808C200FF2F5408D3
:101FA800C60001300310C60DFF3E031DD62F0310D7
:101FB800460D013E84000A128A150A200A128A1563
:101FC800C7000A128A150A200A128A15C8000A12BE
:101FD8008A150A200A128A15C9000A128A150A20C7
:101FE8000A128A15CA004A08C5004908C4004808E8
:101FF800C3004708C200080064008001840A040680
:10200800031900340406012800300A168A15F8233B
:102018000A168A110D30F700FB30F600F60B12286D
:10202800F70B1228172803300A168A15DE230A161A
:102038008A110430F7003D30F600F60B2128F70B23
:102048002128262803300A168A15DE230A168A1143
:102058000830F7002330F600F60B3028F70B30284D
:1020680003300A168A15DE230A168A1102300A1668
:102078008A15DE230A168A1102300A168A15DE230B
:102088000A168A1108300A168A15DE230A168A11DA
:1020980000300A168A15DE230A168A110C300A1631
:1020A8008A15DE230A168A1100300A168A15DE23DD
:1020B8000A168A1106300A168A15DE230A168A11AC
:1020C800080083120313A501A11F6B286C2873282D
:1020D800A009A109A00A0319A10AA501A50AA31F1D
:1020E800762877288028A209A309A20A0319A30A37
:1020F8000130F9007908A506A601A70120082104E6
:10210800031987288828BF28A401A40A9628013023
:102118000310A00DA10DFF3E031D8C280130F9000E
:102128007908A407A11F99289A288B280130031041
:10213800A60DA70DFF3E031D9B2821082302031DA2
:10214800A72820082202031CAA28AB28B2282008A6
:10215800A2022108031CA303A302261401300310C2
:10216800A10CA00CFF3E031DB3280130A402031DDF
:10217800BE28BF289A2825080319C328C428C928B7
:10218800A609A709A60A0319A70A2708A10026086D
:10219800A00008000030720583120313A00000306D
:1021A8007305A10080307405A2007F307505A30077
:1021B8002308220421042004031DE328E428EC2832
:1021C8000030F5000030F4000030F3000030F20079
:1021D80000307605A00000307705A1008030780532
:1021E800A2007F307905A3002308220421042004DB
:1021F800031DFF28002908290030F9000030F800E5
:102208000030F7000030F600F51F0B290C293029A3
:102218000030A0000030A1000030A2008030A300F0
:102228007208A0027308031C730F1B291C29A10242
:102238007408031C740F21292229A2027508031CA3
:10224800750F27292829A3022308F5002208F4007E
:102258002108F3002008F200F91F332934295829EE
:102268000030A0000030A1000030A2008030A300A0
:102278007608A0027708031C770F43294429A10296
:102288007808031C780F49294A29A2027908031CF7
:10229800790F4F295029A3022308F9002208F800D2
:1022A8002108F7002008F6008030F5068030F9068E
:1022B80079087502031D6A2978087402031D6A29C2
:1022C80077087302031D6A297608720203186D29BC
:1022D8006E297029031071290314080072088312EB
:1022E8000313A0007308A1007408A2000310210DB5
:1022F800220DA8002808031D822983298C29003073
:10230800F5000030F4000030F3000030F200282A15
:102318007608A0007708A1007808A2000310210D14
:10232800220DA7002708031D9A299B299C29832988
:10233800F317FF30F205FF30F3050030F405F71707
:10234800FF30F605FF30F7050030F8050030A6002D
:102358000030A5000030A4000030A3007F30A802A0
:1023680098302707A0002008A8021830A7000130DD
:10237800A0000310A30DA40DA50DA60DA00BBD294B
:1023880078087402031DCE2977087302031DCE292D
:1023980076087202031CD129D229DD297608F202B7
:1023A8007708031C770FF3027808031C780AF402F5
:1023B800231401300310F20DF30DF40DFF3E031D3D
:1023C800DE290130A702031DEA29EB29BB29A81F32
:1023D800EE29EF29092A2808803A973E0318F5299B
:1023E800F629F729832901300310A60CA50CA40CA3
:1023F800A30CFF3E031DF8290130A0002008A80700
:10240800031D072A082AF729202A18302802031C46
:102418000E2A0F2A1B2A83290130A0000310A30DBE
:10242800A40DA50DA60DA00B122A0130A80228089C
:10243800031D1F2A202A102A2608F5002508F40063
:102448002408F3002308F20008000310740D750D2A
:1024580083120313A6002608031D332A342A3D2AB3
:102468000030F5000030F4000030F3000030F200D6
:10247800E02A0310780D790DA5002508031D452ACB
:10248800462A472A342AF417FF30F205FF30F305AD
:10249800FF30F4050030F505F817FF30F605FF307A
:1024A800F705FF30F8050030F9050030A4000030CA
:1024B800A3000030A2000030A1007F30A602A030A7
:1024C8002507A0002008A6022030A5000130A000A2
:1024D8000310A10DA20DA30DA40DA00B6C2A790861
:1024E8007502031D812A78087402031D812A770862
:1024F8007302031D812A76087202031C842A852A26
:10250800942A7608F2027708031C770FF3027808FA
:10251800031C780FF4027908031C790FF5022114C3
:102528000130A0000310F20DF30DF40DF50DA00B12
:10253800962A0130A502031DA22AA32A6A2AA61FE9
:10254800A62AA72AC12A2608803A9F3E0318AD2A40
:10255800AE2AAF2A342A01300310A40CA30CA20C13
:10256800A10CFF3E031DB02A0130A0002008A607D9
:10257800031DBF2AC02AAF2AD82A20302602031CEE
:10258800C62AC72AD32A342A0130A0000310A10D75
:10259800A20DA30DA40DA00BCA2A0130A60226087D
:1025A800031DD72AD82AC82A2408F5002308F400CE
:1025B8002208F3002108F200080083120313A80080
:1025C80028080319E82AE92AFD2AA31FEC2AED2A7C
:1025D800FD2A2009AA002109AB002209AC00230921
:1025E800AD00AA0A0319AB0A0319AC0A0319AD0A0C
:1025F800052B2308AD002208AC002108AB002008F9
:10260800AA002308220421042004031D0C2B0D2BEF
:10261800162B0030A3000030A2000030A1000030CB
:10262800A0009A2B9630A900262B0130A40024087C
:10263800A90701300310AD0CAC0CAB0CAA0CFF3E83
:10264800031D1E2BFE302D05031D2B2B2C2B192BA8
:10265800482B0130A4002408A9070130AA0700303C
:1026680003180130AB07003003180130AC07003005
:1026780003180130AD0701300310AD0CAC0CAB0CE6
:10268800AA0CFF3E031D402BFF302D05031D4D2BCB
:102698004E2B2D2B5A2B0130A9020130A400031018
:1026A800AA0DAB0DAC0DAD0DA40B532BAC1B5D2BC4
:1026B8005E2B642B023029020318632B642B4F2BEB
:1026C8002918672B682B702BFF30AA05FF30AB0544
:1026D8007F30AC05FF30AD050310A90C2908A40014
:1026E800A501A601A70118300310A40DA50DA60D7C
:1026F800A70DFF3E031D782B2408AA042508AB0468
:102708002608AC042708AD04280803198C2B8D2B48
:10271800922BA31F902B912B922BAD172D08A30062
:102728002C08A2002B08A1002A08A0000800831288
:102738000313D5006E305502031CA32BA42BB32C16
:102748003F30AB000030AA000030A9000030A800DC
:102758006430A0000030A1005508C600C701460833
:10276800A2004708A3000A168A15B7250A168A1177
:10277800831203132008C80001300310C80DFF3E60
:10278800031DC12B0310480D7D3E84000A128A15D3
:102798000A200A168A11C9000A128A150A200A167E
:1027A8008A11CA000A128A150A200A168A11CB0051
:1027B8000A128A150A200A168A11CC004C08AF00A2
:1027C8004B08AE004A08AD004908AC000A128A1549
:1027D80058210A168A11831203132B08D4002A08D9
:1027E800D3002908D2002808D1000A30A000003000
:1027F800A1005508C600C7014608F4004708F500BF
:102808006430F2000030F3000A168A1537250A16DC
:102818008A11730883120313A3007208A2000A1610
:102828008A15B7250A168A11831203132008C800CF
:1028380001300310C80DFF3E031D1D2C0310480D69
:10284800593E84000A128A150A200A168A11C900FC
:102858000A128A150A200A168A11CA000A128A154B
:102868000A200A168A11CB000A128A150A200A16AB
:102878008A11CC004C08AB004B08AA004A08A900F2
:102888004908A8005408AF005308AE005208AD002C
:102898005108AC000A128A1558210A168A118312A7
:1028A80003132B08D0002A08CF002908CE002808D7
:1028B800CD000A30F2000030F3005508C600C70109
:1028C8004608F4004708F5000A168A1537250A163F
:1028D8008A11720883120313C80001300310C80D4F
:1028E800FF3E031D722C0310480D353E84000A126A
:1028F8008A150A200A168A11C9000A128A150A209E
:102908000A168A11CA000A128A150A200A168A119A
:10291800CB000A128A150A200A168A11CC004C0824
:10292800AB004B08AA004A08A9004908A8005008AB
:10293800AF004F08AE004E08AD004D08AC000A12BB
:102948008A1558210A168A11831203132B08C50009
:102958002A08C4002908C3002808C200A72D0B3084
:102968005502031CB82CB92C642D3F30AB00003045
:10297800AA000030A9000030A8000A30A0000030EA
:10298800A1005508C600C7014608A2004708A300D1
:102998000A168A15B7250A168A1183120313200806
:1029A800C80001300310C80DFF3E031DD62C0310CC
:1029B800480D593E84000A128A150A200A168A11FF
:1029C800C9000A128A150A200A168A11CA000A12B0
:1029D8008A150A200A168A11CB000A128A150A20BB
:1029E8000A168A11CC004C08AF004B08AE004A0802
:1029F800AD004908AC000A128A1558210A168A1136
:102A0800831203132B08D4002A08D3002908D20004
:102A18002808D1000A30F2000030F3005508C6003B
:102A2800C7014608F4004708F5000A168A15372535
:102A38000A168A11720883120313C80001300310A2
:102A4800C80DFF3E031D232D0310480D353E84009D
:102A58000A128A150A200A168A11C9000A128A154A
:102A68000A200A168A11CA000A128A150A200A16AA
:102A78008A11CB000A128A150A200A168A11CC007C
:102A88004C08AB004B08AA004A08A9004908A8004E
:102A98005408AF005308AE005208AD005108AC000E
:102AA8000A128A1558210A168A11831203132B0851
:102AB800C5002A08C4002908C3002808C200A72D99
:102AC8003F30AB000030AA000030A9000030A80059
:102AD8005508C60001300310C60DFF3E031D6F2DBB
:102AE8000310460D353E84000A128A150A200A167C
:102AF8008A11C7000A128A150A200A168A11C80004
:102B08000A128A150A200A168A11C9000A128A1599
:102B18000A200A168A11CA004A08AF004908AE00FE
:102B28004808AD004708AC000A128A1558210A1651
:102B38008A11831203132B08C5002A08C400290828
:102B4800C3002808C20008008312031359088039FB
:102B5800E6005908DE005E07E800D81FB42DB52D41
:102B6800B62D681468080319BA2DBB2DCB2D680A39
:102B7800031DBF2DC02DC82D0030D9000030D8004E
:102B88000030D7000030D600D817D901D32D003037
:102B9800D9000030D8000030D7000030D6005D08DA
:102BA8008039E700670866060319DB2DDC2DDD2D6B
:102BB80066175D08DE005E07E700DC1FE42DE52DE3
:102BC800E62D671467080319EA2DEB2DFB2D670A1C
:102BD800031DEF2DF02DF82D0030DD000030DC0056
:102BE8000030DB000030DA00DC17DD01032E003096
:102BF800DD000030DC000030DB000030DA0068085F
:102C080067020318082E092E2F2E661F0C2E0D2E74
:102C1800112E8030DE005E08E6066808E9006708C5
:102C2800E8006908E7005608E9005A08D60069086C
:102C3800DA005708E9005B08D7006908DB00580884
:102C4800E9005C08D8006908DC005908E9005D085B
:102C5800D9006908DD00E9016708DE00DF015F08C7
:102C6800E10068085E02E000031CE1036108803AA5
:102C7800FF0080307F02031D432E1A306002031CC0
:102C8800462E472E7E2E83120313590858045704E4
:102C98005604031D502E522E0130532E0030E900E9
:102CA8000030D9000030D8000030D7000030D600FE
:102CB8006708E800862E691C622E632E6A2E690852
:102CC800DE0003105E0C0138E9006C2E0310E90CDD
:102CD800561C6F2E702E712EE9170130DE00590D2B
:102CE800D90CD80CD70CD60CDE0B732E0130DE00B5
:102CF8005E08E8078312031367086802031C852E21
:102D0800862E5F2E661B892E8A2ED32E6808031DF9
:102D18008E2E8F2E982E0030D9000030D80000302B
:102D2800D7000030D600FF2F5A08D6075B080311DA
:102D38000318013E0319A12ED7075C0803110318D5
:102D4800013E0319A82ED8075D0803110318013E98
:102D58000319AF2ED907591CB22EB32E872F691C21
:102D6800B62EB72EBE2E6908DE0003105E0C0138A1
:102D7800E900C02E0310E90C561CC32EC42EC52E24
:102D8800E9170130DE00590DD90CD80CD70CD60C38
:102D9800DE0BC72E0130DE005E08E807872F5908D2
:102DA800803AFF005D08803A7F02031DE52E5C082B
:102DB8005802031DE52E5B085702031DE52E5A082D
:102DC80056020318E82EE92E412FFF30DE00FF30AF
:102DD800DF00FF30E000FF30E1005A08E2005B0846
:102DE800E3005C08E4005D08E5005608E2025708C5
:102DF800031C570F002F012FE3025808031C580F1C
:102E0800062F072FE4025908031C590F0C2F0D2F0A
:102E1800E5026208DE0763080318630F142F152FF5
:102E2800DF0764080318640F1A2F1B2FE0076508D3
:102E38000318650AE1076108D9006008D8005F082F
:102E4800D7005E08D6008030DE005E08E606E90995
:102E5800E90A6908031D312F322F4F2F0130D60799
:102E6800003003180130D707003003180130D807A5
:102E7800003003180130D9074F2F5A08D6025B08D3
:102E8800031C5B0FD7025C08031C5C0FD8025D08AB
:102E9800031C5D0FD9025908580457045604031D32
:102EA800562F572F832F6908031D5B2F5C2F832F05
:102EB8000030D9000030D8000030D7000030D600EC
:102EC800FF2F0130DE000310D60DD70DD80DD90D18
:102ED800DE0B672FE91F712F722F732F5614691C91
:102EE800762F772F7A2F0314E90D7C2F0310E90D25
:102EF80068080319802F812F832F0130E802D81F1B
:102F0800862F872F652FE701E91F8B2F8C2F9A2F8C
:102F180069087F390319912F922F952FE701E70A46
:102F28009A2F561C982F992F9A2F922F67080319BA
:102F38009E2F9F2FD32F0130D60700300318013062
:102F4800D707003003180130D807003003180130C4
:102F5800D907591CB02FB12FD32F5608DE005708B8
:102F6800DF005808E0005908E1000130E200610D77
:102F7800E10CE00CDF0CDE0CE20BBB2F6108D90082
:102F88006008D8005F08D7005E08D600680A0319F1
:102F9800CE2FCF2FD32F0130DE005E08E807680A56
:102FA8000319D72FD82FDD2F6808031DDC2FDD2F3D
:102FB800EB2F0030D9000030D8000030D7000030A7
:102FC800D6006808031DE92FEA2FEB2FE601681CDD
:102FD800EE2FEF2FF12FD817F52F7F30DE005E0888
:102FE800D8056808DE0003105E0CD900E61FFD2F27
:082FF800FE2FFF2FD91708007E
:1036E6000A168A1591230A168A15831603131114CE
:1036F60008000A168A1591230A168A15720883127B
:103706000313930008007508740473047204031904
:103716008D2B8E2B902B8030F50608008316031315
:103726001419962B972B912B11081F39031D9C2BCF
:103736009D2B912B080000300A168A15DE230A16E7
:103746008A1501300A168A15DE230A168A1508001C
:103756003234333430343934323433340034303460
:10376600303430343034303430340034F300F20145
:103776003A3073020318C02BC12BC92B30307302A9
:10378600031CC62BC72BC92BF201F20A720C0800C8
:103796007E088A007F0882000A168A15CB230A163D
:1037A6008A158000840A04087D0603190034FF0A7E
:1037B6000319FE0ACF2BF5008312031308117508AF
:1037C6000A168A15F8230A168A1583120313881512
:1037D6000330F4009730F300F30BEF2BF40BEF2BD1
:1037E600F42B8312031388110800F200721CFC2BC1
:1037F600FD2B012C831203130816042C83120313CA
:103806000812F21C072C082C0A2C88160B2C88127E
:10381600721D0E2C0F2C112C0817122C0813F21DDA
:10382600152C162C182C8817192C881308008312AF
:1038360003138C1D1F2C202C212C8C110C1E242CC8
:10384600252C262C0C128C1E292C2A2C2B2C8C1267
:103856000C1F2E2C2F2C302C0C130B1D332C342C20
:10386600372CB33081000B110B0871088A00700EDB
:103876008300FE0E7E0E090083120313A400A0012E
:10388600A1017208F400F5017408A2007508A300EE
:10389600241C4E2C4F2C552C2208A0070318A10AD5
:1038A6002308A10701300310A20DA30DFF3E031D3F
:1038B600562C0310A40C2408031D622C632C4B2CDD
:1038C6002108F3002008F20008000A168A15912341
:1038D6000A168A158316031391150A168A1591235B
:1038E6000A168A15831203131308F400F5017408E7
:1038F600F6007508F7000A168A1591230A168A1526
:1039060072037304031D882C892C8D2C83160313D4
:103916009112902C83160313911611167708F30053
:103926007608F200080083160317880189018316BA
:10393600031385018601880189018312031385011A
:103946008601880189018B170B13831603138C11CB
:103956000C138B12831203138C110C130B100B1107
:10396600831603130F088F3960388F000F14003049
:1039760083120313A9000130A8008630A700A030E7
:10398600A6000A168A15FF240A168A150800F600EC
:1039960076080F39F4007608F039F5008312031320
:1039A60008157508F30004300310F30CFF3E031DE1
:1039B600D72C73080A168A15F8230A168A15831255
:1039C600031388150630F300F30BE72C000083126F
:1039D6000313881174080A168A15F8230A168A151D
:1039E6008312031388150630F300F30BF82C00003E
:1039F60083120313881108002830831203139400DE
:103A0600831603139101831203132608AA002708BD
:103A1600AB002808AC002908AD0002300310AA0D3F
:103A2600AB0DAC0DAD0DFF3E031D112D2D08F500A0
:103A36002C08F4002B08F3002A08F2000030F900E5
:103A46001E30F8008430F7008030F6000A168A151A
:103A560098270A168A157208FF3E831603139300E9
:103A660094018715071608007208730403193C2D84
:103A76003D2D6C2DF701F70A4B2D01300310F20D89
:103A8600F30DFF3E031D412D0130F6007608F707C2
:103A9600F31F4E2D4F2D402D73087502031D552D16
:103AA60072087402031C582D592D5F2D7208F402FA
:103AB6007308031CF503F50201300310F30CF20C36
:103AC600FF3E031D602D0130F702031D6B2D6C2D8B
:103AD6004F2D7508F3007408F200080083120313D3
:103AE600A301A4019A2D23087707A1007808A00056
:103AF6000318A00AA31F802DA00383120313200816
:103B0600A2002208FF00210884000A128A1500205C
:103B16000A168A150A168A15CA240A168A15013043
:103B260083120313A3070318A40A0030A40723086B
:103B36007707A1007808A0000318A00AA31FA42DE8
:103B4600A003831203132008A2002208FF00210805
:103B560084000A128A1500200A168A15003A031DE7
:103B6600B52DB62D762D080083120313A501A601E7
:103B7600200821040319C02DC12DF82DA401A40A83
:103B8600CF2D01300310A00DA10DFF3E031DC52D45
:103B96000130F8007808A407A11FD22DD32DC42D1B
:103BA60001300310A50DA60DFF3E031DD42D2108DF
:103BB6002302031DE02D20082202031CE32DE42D21
:103BC600EB2D2008A2022108031CA303A30225143F
:103BD60001300310A10CA00CFF3E031DEC2D01309B
:103BE600A402031DF72DF82DD32D2608A1002508C4
:103BF600A000080083120313A0002003031D042E57
:103C0600052E242E76087F3EA3002308F7000430F5
:103C16000310F70CFF3E031D0B2E7708A1002308A7
:103C26000F39A20021080A168A15DE230A168A15FC
:103C36008312031322080A168A15DE230A168A152A
:103C4600482E02302006031D292E2A2E482E7608DD
:103C5600BF3EA3002308F70004300310F70CFF3E15
:103C6600031D302E7708A10023080F39A200210872
:103C76000A168A15DE230A168A15831203132208EA
:103C86000A168A15DE230A168A1508000030720500
:103C960083120313A00000307305A1008030740561
:103CA600A2007F307505A300230822042104200406
:103CB600031D5E2E5F2E672E0030F5000030F400E7
:103CC6000030F3000030F20000307605A00000302E
:103CD6007705A10080307805A2007F307905A30022
:103CE6002308220421042004031D7A2E7B2E832E12
:103CF6000030F9000030F8000030F7000030F60020
:103D060079087506031D912E78087406031D912EF9
:103D160077087306031D912E760872060319942EF2
:103D2600952E972E0310982E0314080080308316C4
:103D36000313A306270883120313D900831603135C
:103D4600260883120313D80083160313250883124B
:103D56000313D70083160313240883120313D60014
:103D660083160313230883120313DD00831603133C
:103D7600220883120313DC0083160313210883121F
:103D86000313DB0083160313200883120313DA00E0
:103D96000A168A11A8250A168A15831203135908CA
:103DA60083160313A3008312031358088316031301
:103DB600A20083120313570883160313A10083126C
:103DC6000313560883160313A0000800750874042D
:103DD600730472040319F02EF12E362F8312031387
:103DE600A101A10A032F0130A0000310F20DF30D6B
:103DF600F40DF50DA00BF82E0130A0002008A10748
:103E0600F51F062F072FF62E75087902031D152FAD
:103E160074087802031D152F73087702031D152FEA
:103E260072087602031C182F192F272F7208F60224
:103E36007308031C730FF7027408031C740FF8024F
:103E46007508031C750FF90201300310F50CF40C0C
:103E5600F30CF20CFF3E031D282F0130A102031DB7
:103E6600352F362F072F7908F5007808F4007708E4
:103E7600F3007608F2000800F801F51F432F442FDF
:103E86004B2FF409F509F40A0319F50AF801F80AA3
:103E9600F31F4E2F4F2F542FF209F309F20A03197D
:103EA600F30A720873040319592F5A2F892FF70141
:103EB600F70A682F01300310F20DF30DFF3E031DC4
:103EC6005E2F0130F6007608F707F31F6B2F6C2F75
:103ED6005D2F73087502031D722F72087402031C8E
:103EE600752F762F7C2F7208F4027308031CF503D6
:103EF600F50201300310F30CF20CFF3E031D7D2F7B
:103F06000130F702031D882F892F6C2F78080319BB
:103F16008D2F8E2F932FF409F509F40A0319F50A4C
:103F26007508F3007408F2000800003083120313CA
:103F3600A4000030A3000030A2000030A1007508E4
:103F46007404730472040319A92FAA2FF72FA5016D
:103F5600A50ABA2F0130A0000310F20DF30DF40DDF
:103F6600F50DA00BAF2F0130A0002008A507F51F07
:103F7600BD2FBE2FAD2F0130A0000310A10DA20D45
:103F8600A30DA40DA00BC02F75087902031DD52F14
:103F960074087802031DD52F73087702031DD52FE9
:103FA60072087602031CD82FD92FE82F7208F60262
:103FB6007308031C730FF7027408031C740FF802CE
:103FC6007508031C750FF902211401300310F50C56
:103FD600F40CF30CF20CFF3E031DE92F0130A50291
:103FE600031DF62FF72FBE2F2408F5002308F40033
:103FF6002208F3002108F2000800FF3FFF3FFF3FC1
:02400600FF3F7A
:04400E00D420FF3F7C
:00000001FF
