:060000000A128A1110280B
:10000800FE00030E83120313D7000A08D8007F08E6
:10001800D9000A128A11BA2D0A128A1113288312DA
:100028000313DA01DB01DC01DD01DE01DF01E001A0
:10003800E101E201E301E401E501E60183010A12BD
:100048008A11A12F831203133D088039CA003D0885
:10005800C2004207CC00BC1F3228332834284C1475
:100068004C0803193828392849284C0A031D3D280B
:100078003E2846280030BD000030BC000030BB00E0
:100088000030BA00BC17BD0151280030BD00003057
:10009800BC000030BB000030BA0041088039CB00FA
:1000A8004B084A06031959285A285B284A17410859
:1000B800C2004207CB00C01F6228632864284B1483
:1000C8004B0803196828692879284B0A031D6D28ED
:1000D8006E2876280030C1000030C0000030BF0014
:1000E8000030BE00C017C10181280030C1000030B7
:1000F800C0000030BF000030BE004C084B0203189F
:1001080086288728AD284A1F8A288B288F28803080
:10011800C2004208CA064C08CD004B08CC004D0866
:10012800CB003A08CD003E08BA004D08BE003B0897
:10013800CD003F08BB004D08BF003C08CD0040087B
:10014800BC004D08C0003D08CD004108BD004D0869
:10015800C100CD014B08C200C3014308C5004C08CB
:100168004202C400031CC5034508803AFF008030E2
:100178007F02031DC1281A304402031CC428C52865
:10018800FC28831203133D083C043B043A04031D76
:10019800CE28D0280130D1280030CD000030BD0055
:1001A8000030BC000030BB000030BA004B08CC0067
:1001B80004294D1CE028E128E8284D08C200031056
:1001C800420C0138CD00EA280310CD0C3A1CED286A
:1001D800EE28EF28CD170130C2003D0DBD0CBC0C38
:1001E800BB0CBA0CC20BF1280130C2004208CC0784
:1001F800831203134B084C02031C03290429DD282E
:100208004A1B0729082951294C08031D0C290D29C7
:1002180016290030BD000030BC000030BB000030A3
:10022800BA007D2A3E08BA073F0803110318013EA9
:1002380003191F29BB07400803110318013E0319BE
:100248002629BC07410803110318013E03192D296B
:10025800BD073D1C30293129052A4D1C3429352973
:100268003C294D08C2000310420C0138CD003E293C
:100278000310CD0C3A1C412942294329CD170130DE
:10028800C2003D0DBD0CBC0CBB0CBA0CC20B452901
:100298000130C2004208CC07052A3D08803AFF0019
:1002A8004108803A7F02031D632940083C02031D70
:1002B80063293F083B02031D63293E083A020318DD
:1002C80066296729BF29FF30C200FF30C300FF300D
:1002D800C400FF30C5003E08C6003F08C7004008FC
:1002E800C8004108C9003A08C6023B08031C3B0F76
:1002F8007E297F29C7023C08031C3C0F84298529D5
:10030800C8023D08031C3D0F8A298B29C9024608EB
:10031800C20747080318470F92299329C3074808BB
:100328000318480F98299929C40749080318490A46
:10033800C5074508BD004408BC004308BB00420887
:10034800BA008030C2004208CA06CD09CD0A4D085D
:10035800031DAF29B029CD290130BA070030031891
:100368000130BB07003003180130BC070030031808
:100378000130BD07CD293E08BA023F08031C3F0FD4
:10038800BB024008031C400FBC024108031C410F7C
:10039800BD023D083C043B043A04031DD429D52979
:1003A800012A4D08031DD929DA29012A0030BD0088
:1003B8000030BC000030BB000030BA007D2A01309C
:1003C800C2000310BA0DBB0DBC0DBD0DC20BE52953
:1003D800CD1FEF29F029F1293A144D1CF429F529EC
:1003E800F8290314CD0DFA290310CD0D4C08031973
:1003F800FE29FF29012A0130CC02BC1F042A052A44
:10040800E329CB01CD1F092A0A2A182A4D087F396A
:1004180003190F2A102A132ACB01CB0A182A3A1CCF
:10042800162A172A182A102A4B0803191C2A1D2ACB
:10043800512A0130BA07003003180130BB070030D9
:1004480003180130BC07003003180130BD073D1CFC
:100458002E2A2F2A512A3A08C2003B08C3003C081A
:10046800C4003D08C5000130C600450DC50CC40CCC
:10047800C30CC20CC60B392A4508BD004408BC0091
:100488004308BB004208BA004C0A03194C2A4D2AFB
:10049800512A0130C2004208CC074C0A0319552AD8
:1004A800562A5B2A4C08031D5A2A5B2A692A0030FF
:1004B800BD000030BC000030BB000030BA004C0862
:1004C800031D672A682A692ACA014C1C6C2A6D2AEE
:1004D8006F2ABC17732A7F30C2004208BC054C083B
:1004E800C2000310420CBD00CA1F7B2A7C2A7D2A49
:1004F800BD1708008312031327088039B1002708A5
:10050800A8002807B800A61F8A2A8B2A8C2A381424
:1005180038080319902A912AA12A380A031D952A16
:10052800962A9E2A0030A7000030A6000030A500B9
:100538000030A400A617A701A92A0030A7000030A0
:10054800A6000030A5000030A40023088039A800C8
:100558002808B1062308A8002807B900A21FB52A51
:10056800B62AB72A391439080319BB2ABC2ACC2A57
:10057800390A031DC02AC12AC92A0030A300003045
:10058800A2000030A1000030A000A217A301D42AC5
:100598000030A3000030A2000030A1000030A0000D
:1005A8002308220421042004031DDB2ADC2AF52A5F
:1005B8000030A7000030A6000030A5000030A400DD
:1005C8008030A6047F30A7043108A8002808A704B3
:1005D8002708A3002608A2002508A1002408A000D7
:1005E800502C3808031DF92AFA2A032B0030A300DF
:1005F8000030A2000030A1000030A000502C3808C4
:10060800A800A9012908AB0039082802AA00031C80
:10061800AB032A087F3EB2002B080318013E003EB8
:10062800B3002708B0002608AF002508AE0024084C
:10063800AD000030A7000030A6000030A500003053
:10064800A4000030B7000030B6000030B50000301C
:10065800B400B901792B39080319332B342B542BE7
:100668000130A8000310AD0DAE0DAF0DB00DA80BF5
:10067800362B0130A8000310A40DA50DA60DA70D5B
:10068800A80B3F2BB71F492B4A2B4B2B24140130A7
:10069800A8000310B40DB50DB60DB70DA80B4D2B62
:1006A80023083002031D622B22082F02031D622B30
:1006B80021082E02031D622B20082D02031C652B26
:1006C800662B752B37172008AD022108031C210F54
:1006D800AE022208031C220FAF022308031C230FBB
:1006E800B0020130A8002808B9071A303902031CE3
:1006F8007E2B7F2B2F2B30082F042E042D0403195B
:10070800862B872BA62B3414A62B0130A8000310A8
:10071800A40DA50DA60DA70DA80B8B2BB71F952B08
:10072800962B972B24140130A8000310B40DB50D97
:10073800B60DB70DA80B992BFF30B2070318B30AF3
:10074800FF30B307A61FA92BAA2B892BB901B71F06
:10075800AE2BAF2BCB2BFF303405A800FF3035056F
:10076800A900FF303605AA007F303705AB002B08FB
:100778002A04290428040319C22BC32BC62BB90148
:10078800B90ACB2B241CC92BCA2BCB2BC32B39085A
:100798000319CF2BD02B012C0130A40700300318EC
:1007A8000130A507003003180130A60700300318F0
:1007B8000130A707271CE12BE22B012C2408A800F5
:1007C8002508A9002608AA002708AB000130AC00BC
:1007D8002B0DAB0CAA0CA90CA80CAC0BEC2B2B0802
:1007E800A7002A08A6002908A5002808A4000130A7
:1007F800B2070318B30A0030B3073308803AFF0082
:1008080080307F02031D0A2CFF303202031C0D2C9E
:100818000E2C1C2CFF3083120313B2000030B300DF
:100828000030A7000030A6000030A5000030A4006A
:10083800831203133308803AFF0080307F02031DC0
:10084800272C0130320203182A2C2B2C382C831227
:100858000313B201B3010030A7000030A600003036
:10086800A5000030A400B101831203133208B800B8
:10087800381C3F2C402C422CA617462C7F30A80051
:100888002808A6053808A8000310280CA700310876
:10089800A8002808A704EC2A0800F800780803191B
:1008A800562C572C6B2CF31F5A2C5B2C6B2C700975
:1008B800FA007109FB007209FC007309FD00FA0ACD
:1008C8000319FB0A0319FC0A0319FD0A732C7308A0
:1008D800FD007208FC007108FB007008FA0073083C
:1008E800720471047004031D7A2C7B2C842C003054
:1008F800F3000030F2000030F1000030F000082D65
:100908009630F900942C0130F4007408F90701308E
:100918000310FD0CFC0CFB0CFA0CFF3E031D8C2C89
:10092800FE307D05031D992C9A2C872CB62C01309E
:10093800F4007408F9070130FA0700300318013091
:10094800FB07003003180130FC07003003180130A2
:10095800FD0701300310FD0CFC0CFB0CFA0CFF3EEC
:10096800031DAE2CFF307D05031DBB2CBC2C9B2C1E
:10097800C82C0130F9020130F4000310FA0DFB0D08
:10098800FC0DFD0DF40BC12CFC1BCB2CCC2CD22C5C
:10099800023079020318D12CD22CBD2C7918D52C11
:1009A800D62CDE2CFF30FA05FF30FB057F30FC0526
:1009B800FF30FD050310F90C7908F400F501F60184
:1009C800F70118300310F40DF50DF60DF70DFF3E85
:1009D800031DE62C7408FA047508FB047608FC0469
:1009E8007708FD0478080319FA2CFB2C002DF31F57
:1009F800FE2CFF2C002DFD177D08F3007C08F2006B
:100A08007B08F1007A08F00008000930831203130C
:100A1800D0001E30CF00E330CE00CE0B112DCF0B0F
:100A2800112DD00B112D182D0A128A116C270A12BC
:100A38008A110A128A11FD260A128A117008831275
:100A48000313E1006103031D2A2D2B2D592D0A12D2
:100A58008A11AA260A128A11700883120313E60063
:100A68000A128A11AA260A128A117008831203131D
:100A7800E5000A128A11AA260A128A11700883123E
:100A88000313E4000A128A11AA260A128A117008AE
:100A980083120313E3000A128A11AA260A128A1182
:100AA800700883120313E20010104230A300C8300C
:100AB800A2000030A1000030A0006308CE00CF01E2
:100AC800D001D1015108F3005008F2004F08F1009D
:100AD8004E08F00000300A128A1151240A128A11B5
:100AE800730883120313A7007208A6007108A500F3
:100AF8007008A4000A128A117E220A128A1183122F
:100B080003132308BD002208BC002108BB002008ED
:100B1800BA006408D200D301D401D5015508F30006
:100B28005408F2005308F1005208F00000300A128D
:100B38008A1151240A128A11730883120313C100FF
:100B48007208C0007108BF007008BE000A128A113E
:100B580026200A128A11831203133D08DD003C087F
:100B6800DC003B08DB003A08DA0008008C1DBD2DCC
:100B7800BE2D262E1412141BC22DC32DC72D941F53
:100B8800C62DC72DCC2D1308E0001413941314168A
:100B980083160313941AD12DD22DEE2D1419D52DA9
:100BA800D62DEE2D831203131308E0008C111416B2
:100BB80083160313141CE12DE22DDC2D831203137D
:100BC80013088800A53083120313D600D60BEA2D2C
:100BD800ED2D232E941AF12DF22D232E141DF52D13
:100BE800F62D232E831203131308E0008316031334
:100BF80014100A128A1109250A128A118312031382
:100C08005D08F3005C08F2005B08F1005A08F00088
:100C18000A128A1134260A128A11700883120313E1
:100C280093001416A53083120313D600D60B1A2E80
:100C38001D2E831603131418222E232E1D2E831205
:100C480003138C110B1C292E2A2E2B2E0B1059083E
:100C5800FF0058088A00570E8300FE0E7E0E09001A
:100C68000310720D730DF9007908031D3C2E3D2EFB
:100C7800462E0030F3000030F2000030F100003062
:100C8800F000A92E7008F4007108F5007208F6004B
:100C98007308F7001F300310F70CF60CF50CF40C72
:100CA800FF3E031D4F2E7408F800F217FF30F005C1
:100CB800FF30F105FF30F2050030F3059630F902F8
:100CC800F91F672E682E822E7908803A973E0318FE
:100CD8006E2E6F2E702E3D2E01300310F30CF20C89
:100CE800F10CF00CFF3E031D712E0130F400740866
:100CF800F907031D802E812E702E992E203079023F
:100D0800031C872E882E942E3D2E0130F4000310EC
:100D1800F00DF10DF20DF30DF40B8B2E0130F902ED
:100D28007908031D982E992E892E780803199D2E6F
:100D38009E2EA92EF009F109F209F309F00A031908
:100D4800F10A0319F20A0319F30A0800F501F6017A
:100D5800F701831203138E018F01081CB42EB52EE0
:100D6800B12E00300F02653003190E02031CBD2E90
:100D7800BE2EC32E0130DE000030DF00F82E8E01BB
:100D88008F010818C82EC92EC52E00300F026530F5
:100D980003190E02031CD12ED22ED32EBE2E0030E4
:100DA8000F02333003190E02031CDB2EDC2EEE2E4D
:100DB8007708073CF200F20A0130F3000030F40033
:100DC800E82E0310F30DF40DF20BE52E7308F5046D
:100DD8007408F6040130F2007208F7070830770249
:100DE800031CF72EF82EAD2E7608F1007508F000DA
:100DF800080083120313DE01DF018E018F01101436
:100E08000818072F082F112F00300F02643003191C
:100E18000E02031C102F112F042F00300F02643014
:100E280003190E02031C192F1A2F1D2FF001F101AF
:100E38003A2F8E018F01081C222F232F2C2F0030D0
:100E48000F02643003190E02031C2B2F2C2F1F2FA7
:100E580000300F02643003190E02031C342F352FA3
:100E6800362F1A2F0130F0000030F10008008316E9
:100E780003178801890183160313850186018801F8
:100E880089018312031385018601880189018B1763
:100E98000B13831603138C110C138B128312031379
:100EA8008C110C130B100B117030831603138F0465
:100EB8000F148312031390101008CF3910389000C4
:100EC800101010300A128A1187270A128A11080096
:100ED8008316031308108312031308104130F1001E
:100EE800EE30F000F00B762FF10B762F0000831216
:100EF800031308141030F000F00B802F0000831645
:100F080003130814080083160313A0002008930095
:100F18003630831203139400803083160313940031
:100F280001309100871507168B170B1783120313CF
:100F38008C11831603138C1508000A128A113B279B
:0C0F48000A128A11A62F0A128A11102822
:08400000FF3FFF3FFF3FFF3FC0
:04400E00D420FF3F7C
:00000001FF
