:060000000A128A110C280F
:10000800FE00030EF3000A08F4000A128A113828C9
:100018000A128A110F280A128A1145210A128A1116
:10002800A7000A128A1146210A128A11A8000A1288
:100038008A1141210A128A11F5000A128A114221F5
:100048000A128A11F6000A128A1143210A128A1129
:10005800F7000A128A1144210A128A11F800F901DC
:1000680083010A128A112B29831203138C1D3D2840
:100078003E2893281412141B422843284728941F0B
:10008800462847284C281308F9001413941314160B
:1000980083160313941A512852286C2814195528CA
:1000A80056286C28831203131308F9008C111416B0
:1000B80083160313141C612862285C288312031317
:1000C800130888001430F200F20B6828000090280A
:1000D800941A6F2870289028141D73287428902863
:1000E800831203131308F9008316031314100A125A
:1000F8008A119F200A128A1183120313220893007F
:1001080014161430F200F20B87280000831603132C
:1001180014188F2890288A28831203138C110B1C1B
:100128009628972898280B1074088A00730E830065
:10013800FE0E7E0E0900831203138618A428A52834
:10014800A828F701F801B028861CAB28AC28B028ED
:100158000130F7000030F8000619B328B428B72892
:10016800F501F601BF28061DBA28BB28BF280130B3
:10017800F5000030F6008619C228C328C628A70152
:10018800A801CE28861DC928CA28CE280130A70074
:100198000030A80075087707F00076080318760A7B
:1001A8007807F10027087007A20028080318280A12
:1001B8007107A300080083160317880189018316B5
:1001C800031385010E308600880189018312031309
:1001D80085018601880189018B170B178316031384
:1001E8008C110C138B12831203138C110C130B102C
:1001F8000B11073083160313960081138B150F0814
:100208008F3940388F000F1400300A128A110F21DD
:100218000A128A11080083120313A4002408831603
:10022800031393003630831203139400803083162F
:100238000313940001309100871507168B170B17CD
:10024800831203138C11831603138C1508000A12EA
:100258008A11DF200A128A11831203130608A500E7
:10026800A6012508A0002608A1000330A20000303E
:10027800A3003D290A128A110C28013400340134E4
:06028800003401340034D3
:08400000FF3FFF3FFF3FFF3FC0
:04400E00D420FF3F7C
:00000001FF
