:060000000A128A110C280F
:10000800FE00030EF3000A08F4000A128A113C28C5
:100018000A128A110F280A128A112C210A128A112F
:10002800A2000A128A112D210A128A11A3000A12AB
:100038008A1128210A128A11F5000A128A11292127
:100048000A128A11F6000A128A112A210A128A1142
:10005800F7000A128A112B210A128A11F800A0014E
:10006800A101F901FA01FB0183010A128A111D2974
:10007800831203138C1D4128422897281412141B3D
:10008800462847284B28941F4A284B2850281308ED
:10009800FB0014139413141683160313941A55288B
:1000A80056287028141959285A28702883120313BF
:1000B8001308FB008C11141683160313141C6528EF
:1000C800662860288312031313088800A630F200FC
:1000D800F20B6C2800009428941A7328742894282A
:1000E800141D772878289428831203131308FB001B
:1000F8008316031314100A128A11A3200A128A11F4
:1001080079088312031393001416A630F200F20B39
:100118008B280000831603131418932894288E281C
:10012800831203138C110B1C9A289B289C280B10F4
:1001380074088A00730E8300FE0E7E0E0900831277
:1001480003138618A828A928AC28F701F801B028B5
:100158000130F7000030F8000619B328B428B72892
:10016800F501F601BB280130F5000030F6008619CC
:10017800BE28BF28C228A201A301C6280130A200B8
:100188000030A30075087707F00076080318760A90
:100198007807F10022087007F90023080318230ADA
:1001A8007107FA000800831603178801890183166E
:1001B800031385010E308600880189018312031319
:1001C80085018601880189018B170B178316031394
:1001D8008C110C138B12831203138C110C130B103C
:1001E8000B117030831603138F040F1400300A129A
:1001F8008A1101210A128A11080083120313A4002C
:1002080024088316031393003630831203139400D3
:100218008030831603139400013091008715071668
:100228008B170B17831203138C11831603138C156A
:1002380008000A128A11D7200A128A11F901FA0154
:1002480024290A128A110C2801340034013400349C
:040258000134003439
:08400000FF3FFF3FFF3FFF3FC0
:04400E00D420FF3F7C
:00000001FF
